{
  "contractName": "PubSub",
  "abi": [
    {
      "anonymous": false,
      "inputs": [
        {
          "indexed": false,
          "internalType": "bytes32",
          "name": "keyID",
          "type": "bytes32"
        },
        {
          "indexed": false,
          "internalType": "string",
          "name": "uri",
          "type": "string"
        }
      ],
      "name": "NewKey",
      "type": "event"
    },
    {
      "anonymous": false,
      "inputs": [
        {
          "indexed": true,
          "internalType": "address",
          "name": "owner",
          "type": "address"
        },
        {
          "indexed": true,
          "internalType": "bytes32",
          "name": "id",
          "type": "bytes32"
        },
        {
          "indexed": false,
          "internalType": "string",
          "name": "_decribe",
          "type": "string"
        },
        {
          "indexed": false,
          "internalType": "uint256",
          "name": "price",
          "type": "uint256"
        }
      ],
      "name": "Register",
      "type": "event"
    },
    {
      "anonymous": false,
      "inputs": [
        {
          "indexed": true,
          "internalType": "address",
          "name": "from",
          "type": "address"
        },
        {
          "indexed": false,
          "internalType": "address",
          "name": "to",
          "type": "address"
        },
        {
          "indexed": false,
          "internalType": "bytes32",
          "name": "deviceID",
          "type": "bytes32"
        },
        {
          "indexed": false,
          "internalType": "uint256",
          "name": "start",
          "type": "uint256"
        },
        {
          "indexed": false,
          "internalType": "uint256",
          "name": "end",
          "type": "uint256"
        },
        {
          "indexed": false,
          "internalType": "uint256",
          "name": "price",
          "type": "uint256"
        },
        {
          "indexed": false,
          "internalType": "bytes32",
          "name": "pk",
          "type": "bytes32"
        }
      ],
      "name": "Subcribe",
      "type": "event"
    },
    {
      "anonymous": false,
      "inputs": [
        {
          "indexed": true,
          "internalType": "bytes32",
          "name": "deviceID",
          "type": "bytes32"
        },
        {
          "indexed": true,
          "internalType": "bytes32",
          "name": "dataID",
          "type": "bytes32"
        },
        {
          "indexed": true,
          "internalType": "bytes32",
          "name": "keyID",
          "type": "bytes32"
        },
        {
          "indexed": false,
          "internalType": "uint256",
          "name": "_from",
          "type": "uint256"
        },
        {
          "indexed": false,
          "internalType": "uint256",
          "name": "_to",
          "type": "uint256"
        },
        {
          "indexed": false,
          "internalType": "string",
          "name": "_uri",
          "type": "string"
        }
      ],
      "name": "newData",
      "type": "event"
    },
    {
      "stateMutability": "payable",
      "type": "fallback",
      "payable": true
    },
    {
      "inputs": [
        {
          "internalType": "bytes32",
          "name": "",
          "type": "bytes32"
        }
      ],
      "name": "usedId",
      "outputs": [
        {
          "internalType": "bool",
          "name": "",
          "type": "bool"
        }
      ],
      "stateMutability": "view",
      "type": "function",
      "constant": true
    },
    {
      "inputs": [
        {
          "internalType": "bytes32",
          "name": "deviceID",
          "type": "bytes32"
        },
        {
          "internalType": "string",
          "name": "_decribe",
          "type": "string"
        },
        {
          "internalType": "uint256",
          "name": "pricePerDay",
          "type": "uint256"
        }
      ],
      "name": "register",
      "outputs": [
        {
          "internalType": "uint256",
          "name": "",
          "type": "uint256"
        }
      ],
      "stateMutability": "nonpayable",
      "type": "function"
    },
    {
      "inputs": [
        {
          "internalType": "bytes32",
          "name": "id",
          "type": "bytes32"
        }
      ],
      "name": "isUsed",
      "outputs": [
        {
          "internalType": "bool",
          "name": "used",
          "type": "bool"
        }
      ],
      "stateMutability": "view",
      "type": "function",
      "constant": true
    },
    {
      "inputs": [
        {
          "internalType": "bytes32",
          "name": "deviceID",
          "type": "bytes32"
        },
        {
          "internalType": "bytes32",
          "name": "dataID",
          "type": "bytes32"
        },
        {
          "internalType": "bytes32",
          "name": "keyID",
          "type": "bytes32"
        },
        {
          "internalType": "uint256",
          "name": "_from",
          "type": "uint256"
        },
        {
          "internalType": "uint256",
          "name": "_to",
          "type": "uint256"
        },
        {
          "internalType": "string",
          "name": "dataUri",
          "type": "string"
        }
      ],
      "name": "publish",
      "outputs": [],
      "stateMutability": "nonpayable",
      "type": "function"
    },
    {
      "inputs": [
        {
          "internalType": "bytes32",
          "name": "deviceID",
          "type": "bytes32"
        },
        {
          "internalType": "bytes32",
          "name": "dataID",
          "type": "bytes32"
        },
        {
          "internalType": "bytes32",
          "name": "keyID",
          "type": "bytes32"
        }
      ],
      "name": "updateKey",
      "outputs": [],
      "stateMutability": "nonpayable",
      "type": "function"
    },
    {
      "inputs": [
        {
          "internalType": "bytes32",
          "name": "deviceID",
          "type": "bytes32"
        },
        {
          "internalType": "uint256",
          "name": "_from",
          "type": "uint256"
        },
        {
          "internalType": "uint256",
          "name": "_to",
          "type": "uint256"
        },
        {
          "internalType": "bytes32",
          "name": "_pubKey",
          "type": "bytes32"
        }
      ],
      "name": "subcribe",
      "outputs": [],
      "stateMutability": "payable",
      "type": "function",
      "payable": true
    },
    {
      "inputs": [
        {
          "internalType": "bytes32",
          "name": "dataID",
          "type": "bytes32"
        },
        {
          "internalType": "bytes32",
          "name": "deviceID",
          "type": "bytes32"
        }
      ],
      "name": "getData",
      "outputs": [
        {
          "internalType": "string",
          "name": "",
          "type": "string"
        }
      ],
      "stateMutability": "view",
      "type": "function",
      "constant": true
    },
    {
      "inputs": [
        {
          "internalType": "bytes32",
          "name": "dataID",
          "type": "bytes32"
        }
      ],
      "name": "getRek",
      "outputs": [
        {
          "internalType": "string",
          "name": "",
          "type": "string"
        }
      ],
      "stateMutability": "view",
      "type": "function",
      "constant": true
    }
  ],
  "bytecode": "0x608060405234801561001057600080fd5b506110ea806100206000396000f3fe60806040526004361061007f5760003560e01c806380bf7c5b1161004e57806380bf7c5b14610162578063b9b5bec91461018b578063ef13ee70146101c8578063fe255a18146101e457610080565b80632e455f891461008257806338609dea146100bf5780633dfb5282146100fc5780637a06fff41461012557610080565b5b005b34801561008e57600080fd5b506100a960048036038101906100a49190610900565b610221565b6040516100b69190610948565b60405180910390f35b3480156100cb57600080fd5b506100e660048036038101906100e19190610963565b610241565b6040516100f39190610a3c565b60405180910390f35b34801561010857600080fd5b50610123600480360381019061011e9190610af9565b61026e565b005b34801561013157600080fd5b5061014c60048036038101906101479190610900565b610386565b6040516101599190610a3c565b60405180910390f35b34801561016e57600080fd5b5061018960048036038101906101849190610ba8565b610444565b005b34801561019757600080fd5b506101b260048036038101906101ad9190610bfb565b6104ce565b6040516101bf9190610c7e565b60405180910390f35b6101e260048036038101906101dd9190610c99565b610697565b005b3480156101f057600080fd5b5061020b60048036038101906102069190610900565b6107f3565b6040516102189190610948565b60405180910390f35b60016020528060005260406000206000915054906101000a900460ff1681565b60606002600083815260200190815260200160002060008481526020019081526020016000205092915050565b846004600088815260200190815260200160002081905550604051806060016040528083838080601f016020809104026020016040519081016040528093929190818152602001838380828437600081840152601f19601f82011690508083019250505050505050815260200185815260200184815250600260008981526020019081526020016000206000888152602001908152602001600020600082015181600001908051906020019061032592919061081d565b5060208201518160010155604082015181600201559050508486887fcf84e30f8ce6bf1e45672f1af19fb6bd0bf127f0ba36ed9f36f05a7410528af2878787876040516103759493929190610d3c565b60405180910390a450505050505050565b60606000600460008481526020019081526020016000205490506003600082815260200190815260200160002080546103be90610dab565b80601f01602080910402602001604051908101604052809291908181526020018280546103ea90610dab565b80156104375780601f1061040c57610100808354040283529160200191610437565b820191906000526020600020905b81548152906001019060200180831161041a57829003601f168201915b5050505050915050919050565b3373ffffffffffffffffffffffffffffffffffffffff1660008085815260200190815260200160002060000160009054906101000a900473ffffffffffffffffffffffffffffffffffffffff1673ffffffffffffffffffffffffffffffffffffffff16146104b157600080fd5b806004600084815260200190815260200160002081905550505050565b60006104d9856107f3565b15610519576040517f08c379a000000000000000000000000000000000000000000000000000000000815260040161051090610e28565b60405180910390fd5b60405180606001604052803373ffffffffffffffffffffffffffffffffffffffff16815260200185858080601f016020809104026020016040519081016040528093929190818152602001838380828437600081840152601f19601f8201169050808301925050505050505081526020018381525060008087815260200190815260200160002060008201518160000160006101000a81548173ffffffffffffffffffffffffffffffffffffffff021916908373ffffffffffffffffffffffffffffffffffffffff160217905550602082015181600101908051906020019061060392919061081d565b5060408201518160020155905050600180600087815260200190815260200160002060006101000a81548160ff021916908315150217905550843373ffffffffffffffffffffffffffffffffffffffff167f9787c881b7180d464005e87c1fa5db8693cabe6f135f4ec78f636c1c0142dedd86868660405161068793929190610e48565b60405180910390a3949350505050565b6000806000868152602001908152602001600020600201546201518084866106bf9190610ea9565b6106c99190610f0c565b6106d39190610f3d565b905080341015610718576040517f08c379a000000000000000000000000000000000000000000000000000000000815260040161070f90610fe3565b60405180910390fd5b3073ffffffffffffffffffffffffffffffffffffffff166108fc829081150290604051600060405180830381858888f1935050505015801561075e573d6000803e3d6000fd5b503373ffffffffffffffffffffffffffffffffffffffff167f8873b901cef6bf62da9e497e76958385e7c1631448089d14dbbd1c2ca5965d8b60008088815260200190815260200160002060000160009054906101000a900473ffffffffffffffffffffffffffffffffffffffff1687878786886040516107e496959493929190611053565b60405180910390a25050505050565b60006001600083815260200190815260200160002060009054906101000a900460ff169050919050565b82805461082990610dab565b90600052602060002090601f01602090048101928261084b5760008555610892565b82601f1061086457805160ff1916838001178555610892565b82800160010185558215610892579182015b82811115610891578251825591602001919060010190610876565b5b50905061089f91906108a3565b5090565b5b808211156108bc5760008160009055506001016108a4565b5090565b600080fd5b600080fd5b6000819050919050565b6108dd816108ca565b81146108e857600080fd5b50565b6000813590506108fa816108d4565b92915050565b600060208284031215610916576109156108c0565b5b6000610924848285016108eb565b91505092915050565b60008115159050919050565b6109428161092d565b82525050565b600060208201905061095d6000830184610939565b92915050565b6000806040838503121561097a576109796108c0565b5b6000610988858286016108eb565b9250506020610999858286016108eb565b9150509250929050565b600081519050919050565b600082825260208201905092915050565b60005b838110156109dd5780820151818401526020810190506109c2565b838111156109ec576000848401525b50505050565b6000601f19601f8301169050919050565b6000610a0e826109a3565b610a1881856109ae565b9350610a288185602086016109bf565b610a31816109f2565b840191505092915050565b60006020820190508181036000830152610a568184610a03565b905092915050565b6000819050919050565b610a7181610a5e565b8114610a7c57600080fd5b50565b600081359050610a8e81610a68565b92915050565b600080fd5b600080fd5b600080fd5b60008083601f840112610ab957610ab8610a94565b5b8235905067ffffffffffffffff811115610ad657610ad5610a99565b5b602083019150836001820283011115610af257610af1610a9e565b5b9250929050565b600080600080600080600060c0888a031215610b1857610b176108c0565b5b6000610b268a828b016108eb565b9750506020610b378a828b016108eb565b9650506040610b488a828b016108eb565b9550506060610b598a828b01610a7f565b9450506080610b6a8a828b01610a7f565b93505060a088013567ffffffffffffffff811115610b8b57610b8a6108c5565b5b610b978a828b01610aa3565b925092505092959891949750929550565b600080600060608486031215610bc157610bc06108c0565b5b6000610bcf868287016108eb565b9350506020610be0868287016108eb565b9250506040610bf1868287016108eb565b9150509250925092565b60008060008060608587031215610c1557610c146108c0565b5b6000610c23878288016108eb565b945050602085013567ffffffffffffffff811115610c4457610c436108c5565b5b610c5087828801610aa3565b93509350506040610c6387828801610a7f565b91505092959194509250565b610c7881610a5e565b82525050565b6000602082019050610c936000830184610c6f565b92915050565b60008060008060808587031215610cb357610cb26108c0565b5b6000610cc1878288016108eb565b9450506020610cd287828801610a7f565b9350506040610ce387828801610a7f565b9250506060610cf4878288016108eb565b91505092959194509250565b82818337600083830152505050565b6000610d1b83856109ae565b9350610d28838584610d00565b610d31836109f2565b840190509392505050565b6000606082019050610d516000830187610c6f565b610d5e6020830186610c6f565b8181036040830152610d71818486610d0f565b905095945050505050565b7f4e487b7100000000000000000000000000000000000000000000000000000000600052602260045260246000fd5b60006002820490506001821680610dc357607f821691505b602082108103610dd657610dd5610d7c565b5b50919050565b7f5075625375623a2049642068617665206265656e207573656400000000000000600082015250565b6000610e126019836109ae565b9150610e1d82610ddc565b602082019050919050565b60006020820190508181036000830152610e4181610e05565b9050919050565b60006040820190508181036000830152610e63818587610d0f565b9050610e726020830184610c6f565b949350505050565b7f4e487b7100000000000000000000000000000000000000000000000000000000600052601160045260246000fd5b6000610eb482610a5e565b9150610ebf83610a5e565b925082821015610ed257610ed1610e7a565b5b828203905092915050565b7f4e487b7100000000000000000000000000000000000000000000000000000000600052601260045260246000fd5b6000610f1782610a5e565b9150610f2283610a5e565b925082610f3257610f31610edd565b5b828204905092915050565b6000610f4882610a5e565b9150610f5383610a5e565b9250817fffffffffffffffffffffffffffffffffffffffffffffffffffffffffffffffff0483118215151615610f8c57610f8b610e7a565b5b828202905092915050565b7f416d6f756e742069732073756666696369656e74000000000000000000000000600082015250565b6000610fcd6014836109ae565b9150610fd882610f97565b602082019050919050565b60006020820190508181036000830152610ffc81610fc0565b9050919050565b600073ffffffffffffffffffffffffffffffffffffffff82169050919050565b600061102e82611003565b9050919050565b61103e81611023565b82525050565b61104d816108ca565b82525050565b600060c0820190506110686000830189611035565b6110756020830188611044565b6110826040830187610c6f565b61108f6060830186610c6f565b61109c6080830185610c6f565b6110a960a0830184611044565b97965050505050505056fea264697066735822122058777c16578caaa780fbd43de783f2d7f121cc34eee587d4af892766ce39d7c064736f6c634300080d0033",
  "immutableReferences": {},
  "source": "// SPDX-License-Identifier: MIT\r\npragma solidity ^0.8.0;\r\n\r\ncontract PubSub {\r\n    uint256 private constant SECADAY = 86400;\r\n    mapping(bytes32 => Devices) userDevices; // deviceID to device\r\n    mapping(bytes32 => bool) public usedId; // deviceID to bool\r\n    mapping(bytes32 => mapping(bytes32 => SensorData)) devicesData; // from deviceID to dataID\r\n    mapping(bytes32 => string) rek; // from dataID to DU address to rek\r\n    mapping(bytes32 => bytes32) keyData;\r\n    struct Devices {\r\n        address owner;\r\n        string decribe;\r\n        uint256 pricePerDay;\r\n    }\r\n\r\n    struct SensorData {\r\n        string uri;\r\n        uint256 from;\r\n        uint256 to;\r\n    }\r\n\r\n    event Register(\r\n        address indexed owner,\r\n        bytes32 indexed id,\r\n        string _decribe,\r\n        uint256 price\r\n    );\r\n    event Subcribe(\r\n        address indexed from,\r\n        address to,\r\n        bytes32 deviceID,\r\n        uint256 start,\r\n        uint256 end,\r\n        uint256 price,\r\n        bytes32 pk\r\n    );\r\n    event newData(\r\n        bytes32 indexed deviceID,\r\n        bytes32 indexed dataID,\r\n        bytes32 indexed keyID,\r\n        uint256 _from,\r\n        uint256 _to,\r\n        string _uri\r\n    );\r\n    event NewKey(bytes32 keyID, string uri);\r\n\r\n    fallback() external payable {}\r\n\r\n    function register(\r\n        bytes32 deviceID,\r\n        string calldata _decribe,\r\n        uint256 pricePerDay\r\n    ) external returns (uint256) {\r\n        require(!isUsed(deviceID), \"PubSub: Id have been used\");\r\n        userDevices[deviceID] = Devices(msg.sender, _decribe, pricePerDay);\r\n        usedId[deviceID] = true;\r\n        emit Register(msg.sender, deviceID, _decribe, pricePerDay);\r\n    }\r\n\r\n    function isUsed(bytes32 id) public view returns (bool used) {\r\n        used = usedId[id];\r\n    }\r\n\r\n    function publish(\r\n        bytes32 deviceID,\r\n        bytes32 dataID,\r\n        bytes32 keyID,\r\n        uint256 _from,\r\n        uint256 _to,\r\n        string calldata dataUri\r\n    ) external {\r\n        keyData[dataID] = keyID;\r\n        devicesData[deviceID][dataID] = SensorData(dataUri, _from, _to);\r\n        emit newData(deviceID, dataID, keyID, _from, _to, dataUri);\r\n    }\r\n\r\n    // function createKey (bytes32 keyID , string calldata _uri ) external {\r\n    //     require(bytes(rek[keyID]).length == 0, \"This key have been used\" );\r\n    //     rek[keyID]= _uri;\r\n    //     emit NewKey(keyID, _uri);\r\n    // }\r\n\r\n    function updateKey(\r\n        bytes32 deviceID,\r\n        bytes32 dataID,\r\n        bytes32 keyID\r\n    ) public {\r\n        require(userDevices[deviceID].owner == msg.sender);\r\n        keyData[dataID] = keyID;\r\n    }\r\n\r\n    function subcribe(\r\n        bytes32 deviceID,\r\n        uint256 _from,\r\n        uint256 _to,\r\n        bytes32 _pubKey\r\n    ) external payable {\r\n        uint256 price = ((_from - _to) / SECADAY) *\r\n            userDevices[deviceID].pricePerDay;\r\n        require(msg.value >= price, \"Amount is sufficient\");\r\n        payable(this).transfer(price);\r\n        emit Subcribe(\r\n            msg.sender,\r\n            userDevices[deviceID].owner,\r\n            deviceID,\r\n            _from,\r\n            _to,\r\n            price,\r\n            _pubKey\r\n        );\r\n    }\r\n\r\n    function getData(bytes32 dataID, bytes32 deviceID)\r\n        external\r\n        view\r\n        returns (string memory)\r\n    {\r\n        devicesData[deviceID][dataID].uri;\r\n    }\r\n\r\n    function getRek(bytes32 dataID) external view returns (string memory) {\r\n        bytes32 keyID = keyData[dataID];\r\n        return rek[keyID];\r\n    }\r\n}\r\n",
  "sourcePath": "D:\\File Bai Hoc\\Luan Van\\Implement-pub-sub-in-blockchain\\contracts\\PubSub.sol",
  "compiler": {
    "name": "solc",
    "version": "0.8.13+commit.abaa5c0e.Emscripten.clang"
  },
  "schemaVersion": "3.4.2",
  "updatedAt": "2022-04-18T08:32:19.775Z",
  "networkType": "ethereum",
  "devdoc": {
    "kind": "dev",
    "methods": {},
    "version": 1
  },
  "userdoc": {
    "kind": "user",
    "methods": {},
    "version": 1
  }
}