{
  "contractName": "PubSub",
  "abi": [
    {
      "anonymous": false,
      "inputs": [
        {
          "indexed": true,
          "internalType": "address",
          "name": "from",
          "type": "address"
        },
        {
          "indexed": true,
          "internalType": "address",
          "name": "to",
          "type": "address"
        },
        {
          "indexed": false,
          "internalType": "bytes32[]",
          "name": "dataID",
          "type": "bytes32[]"
        },
        {
          "indexed": false,
          "internalType": "uint256",
          "name": "amount",
          "type": "uint256"
        },
        {
          "indexed": true,
          "internalType": "bytes32",
          "name": "txId",
          "type": "bytes32"
        }
      ],
      "name": "Confirm",
      "type": "event"
    },
    {
      "anonymous": false,
      "inputs": [
        {
          "indexed": true,
          "internalType": "bytes32",
          "name": "deviceID",
          "type": "bytes32"
        },
        {
          "indexed": true,
          "internalType": "bytes32",
          "name": "dataID",
          "type": "bytes32"
        },
        {
          "indexed": false,
          "internalType": "uint256",
          "name": "_from",
          "type": "uint256"
        },
        {
          "indexed": false,
          "internalType": "uint256",
          "name": "_to",
          "type": "uint256"
        },
        {
          "indexed": false,
          "internalType": "string",
          "name": "_dataUri",
          "type": "string"
        },
        {
          "indexed": false,
          "internalType": "string",
          "name": "_keyUri",
          "type": "string"
        }
      ],
      "name": "NewData",
      "type": "event"
    },
    {
      "anonymous": false,
      "inputs": [
        {
          "indexed": false,
          "internalType": "address",
          "name": "to",
          "type": "address"
        },
        {
          "indexed": false,
          "internalType": "bytes32",
          "name": "txID",
          "type": "bytes32"
        },
        {
          "indexed": false,
          "internalType": "string",
          "name": "keyUri",
          "type": "string"
        }
      ],
      "name": "NewKey",
      "type": "event"
    },
    {
      "anonymous": false,
      "inputs": [
        {
          "indexed": true,
          "internalType": "address",
          "name": "owner",
          "type": "address"
        },
        {
          "indexed": true,
          "internalType": "bytes32",
          "name": "id",
          "type": "bytes32"
        },
        {
          "indexed": false,
          "internalType": "string",
          "name": "deviceName",
          "type": "string"
        },
        {
          "indexed": false,
          "internalType": "string",
          "name": "_describe",
          "type": "string"
        },
        {
          "indexed": false,
          "internalType": "uint256",
          "name": "price",
          "type": "uint256"
        }
      ],
      "name": "Register",
      "type": "event"
    },
    {
      "anonymous": false,
      "inputs": [
        {
          "indexed": true,
          "internalType": "address",
          "name": "from",
          "type": "address"
        },
        {
          "indexed": true,
          "internalType": "address",
          "name": "to",
          "type": "address"
        },
        {
          "indexed": true,
          "internalType": "bytes32",
          "name": "deviceID",
          "type": "bytes32"
        },
        {
          "indexed": false,
          "internalType": "bytes32",
          "name": "txID",
          "type": "bytes32"
        },
        {
          "indexed": false,
          "internalType": "uint256",
          "name": "start",
          "type": "uint256"
        },
        {
          "indexed": false,
          "internalType": "uint256",
          "name": "end",
          "type": "uint256"
        },
        {
          "indexed": false,
          "internalType": "uint256",
          "name": "price",
          "type": "uint256"
        },
        {
          "indexed": false,
          "internalType": "string",
          "name": "pk",
          "type": "string"
        }
      ],
      "name": "Subscribe",
      "type": "event"
    },
    {
      "stateMutability": "payable",
      "type": "fallback",
      "payable": true
    },
    {
      "inputs": [
        {
          "internalType": "bytes32",
          "name": "",
          "type": "bytes32"
        }
      ],
      "name": "usedId",
      "outputs": [
        {
          "internalType": "bool",
          "name": "",
          "type": "bool"
        }
      ],
      "stateMutability": "view",
      "type": "function",
      "constant": true
    },
    {
      "inputs": [
        {
          "internalType": "bytes32",
          "name": "deviceID",
          "type": "bytes32"
        },
        {
          "internalType": "string",
          "name": "deviceName",
          "type": "string"
        },
        {
          "internalType": "string",
          "name": "_describe",
          "type": "string"
        },
        {
          "internalType": "uint256",
          "name": "pricePerDay",
          "type": "uint256"
        }
      ],
      "name": "register",
      "outputs": [],
      "stateMutability": "nonpayable",
      "type": "function"
    },
    {
      "inputs": [
        {
          "internalType": "bytes32",
          "name": "id",
          "type": "bytes32"
        }
      ],
      "name": "isUsed",
      "outputs": [
        {
          "internalType": "bool",
          "name": "used",
          "type": "bool"
        }
      ],
      "stateMutability": "view",
      "type": "function",
      "constant": true
    },
    {
      "inputs": [
        {
          "internalType": "bytes32",
          "name": "deviceID",
          "type": "bytes32"
        },
        {
          "internalType": "bytes32",
          "name": "dataID",
          "type": "bytes32"
        },
        {
          "internalType": "uint256",
          "name": "_from",
          "type": "uint256"
        },
        {
          "internalType": "uint256",
          "name": "_to",
          "type": "uint256"
        },
        {
          "internalType": "string",
          "name": "keyUri",
          "type": "string"
        },
        {
          "internalType": "string",
          "name": "dataUri",
          "type": "string"
        }
      ],
      "name": "publish",
      "outputs": [],
      "stateMutability": "nonpayable",
      "type": "function"
    },
    {
      "inputs": [
        {
          "internalType": "bytes32",
          "name": "deviceID",
          "type": "bytes32"
        },
        {
          "internalType": "bytes32",
          "name": "txID",
          "type": "bytes32"
        },
        {
          "internalType": "address",
          "name": "to",
          "type": "address"
        },
        {
          "internalType": "string",
          "name": "keyUri",
          "type": "string"
        }
      ],
      "name": "updateKey",
      "outputs": [],
      "stateMutability": "nonpayable",
      "type": "function"
    },
    {
      "inputs": [
        {
          "internalType": "bytes32",
          "name": "deviceID",
          "type": "bytes32"
        },
        {
          "internalType": "uint256",
          "name": "_from",
          "type": "uint256"
        },
        {
          "internalType": "uint256",
          "name": "_to",
          "type": "uint256"
        },
        {
          "internalType": "string",
          "name": "_pubKey",
          "type": "string"
        }
      ],
      "name": "subscribe",
      "outputs": [
        {
          "internalType": "bytes32",
          "name": "",
          "type": "bytes32"
        }
      ],
      "stateMutability": "payable",
      "type": "function",
      "payable": true
    },
    {
      "inputs": [
        {
          "internalType": "bytes32",
          "name": "deviceID",
          "type": "bytes32"
        },
        {
          "internalType": "bytes32[]",
          "name": "dataID",
          "type": "bytes32[]"
        }
      ],
      "name": "calPackagePrice",
      "outputs": [
        {
          "internalType": "uint256",
          "name": "",
          "type": "uint256"
        }
      ],
      "stateMutability": "view",
      "type": "function",
      "constant": true
    },
    {
      "inputs": [
        {
          "internalType": "bytes32",
          "name": "deviceID",
          "type": "bytes32"
        },
        {
          "internalType": "bytes32[]",
          "name": "dataID",
          "type": "bytes32[]"
        }
      ],
      "name": "calPackagePrice2",
      "outputs": [
        {
          "internalType": "uint256",
          "name": "",
          "type": "uint256"
        },
        {
          "internalType": "uint256",
          "name": "",
          "type": "uint256"
        }
      ],
      "stateMutability": "view",
      "type": "function",
      "constant": true
    },
    {
      "inputs": [
        {
          "internalType": "bytes32",
          "name": "deviceID",
          "type": "bytes32"
        },
        {
          "internalType": "bytes32[]",
          "name": "dataID",
          "type": "bytes32[]"
        },
        {
          "internalType": "bytes32",
          "name": "txId",
          "type": "bytes32"
        }
      ],
      "name": "confirm",
      "outputs": [],
      "stateMutability": "nonpayable",
      "type": "function"
    },
    {
      "inputs": [
        {
          "internalType": "bytes32",
          "name": "dataID",
          "type": "bytes32"
        },
        {
          "internalType": "bytes32",
          "name": "deviceID",
          "type": "bytes32"
        }
      ],
      "name": "getData",
      "outputs": [
        {
          "components": [
            {
              "internalType": "bool",
              "name": "isUsed",
              "type": "bool"
            },
            {
              "internalType": "string",
              "name": "uri",
              "type": "string"
            },
            {
              "internalType": "uint256",
              "name": "from",
              "type": "uint256"
            },
            {
              "internalType": "uint256",
              "name": "to",
              "type": "uint256"
            }
          ],
          "internalType": "struct PubSub.SensorData",
          "name": "",
          "type": "tuple"
        }
      ],
      "stateMutability": "view",
      "type": "function",
      "constant": true
    },
    {
      "inputs": [
        {
          "internalType": "bytes32",
          "name": "deviceID",
          "type": "bytes32"
        },
        {
          "internalType": "bytes32",
          "name": "dataID",
          "type": "bytes32"
        }
      ],
      "name": "getRek",
      "outputs": [
        {
          "internalType": "string",
          "name": "",
          "type": "string"
        }
      ],
      "stateMutability": "view",
      "type": "function",
      "constant": true
    },
    {
      "inputs": [
        {
          "internalType": "address",
          "name": "requester",
          "type": "address"
        },
        {
          "internalType": "address",
          "name": "owner",
          "type": "address"
        },
        {
          "internalType": "uint256",
          "name": "from",
          "type": "uint256"
        },
        {
          "internalType": "uint256",
          "name": "to",
          "type": "uint256"
        }
      ],
      "name": "getTx",
      "outputs": [
        {
          "internalType": "bytes32",
          "name": "",
          "type": "bytes32"
        }
      ],
      "stateMutability": "pure",
      "type": "function",
      "constant": true
    },
    {
      "inputs": [
        {
          "internalType": "bytes32",
          "name": "deviceID",
          "type": "bytes32"
        }
      ],
      "name": "getDevice",
      "outputs": [
        {
          "components": [
            {
              "internalType": "address",
              "name": "owner",
              "type": "address"
            },
            {
              "internalType": "string",
              "name": "name",
              "type": "string"
            },
            {
              "internalType": "string",
              "name": "describe",
              "type": "string"
            },
            {
              "internalType": "uint256",
              "name": "pricePerDay",
              "type": "uint256"
            }
          ],
          "internalType": "struct PubSub.Devices",
          "name": "",
          "type": "tuple"
        }
      ],
      "stateMutability": "view",
      "type": "function",
      "constant": true
    }
  ],
  "bytecode": "0x608060405234801561001057600080fd5b50613196806100206000396000f3fe6080604052600436106100c65760003560e01c80637e35c9731161007f578063b6e24aa111610059578063b6e24aa1146102ba578063f0574c80146102e3578063fb25b47c1461030c578063fe255a1814610349576100c7565b80637e35c9731461021657806397d224ab1461023f578063a2c7e8b71461027d576100c7565b806302c7a71b146100c957806315decc22146100f95780632e455f891461013657806338609dea14610173578063412034c3146101b05780636a7f745e146101d9576100c7565b5b005b6100e360048036038101906100de9190611f1c565b610386565b6040516100f09190611fb3565b60405180910390f35b34801561010557600080fd5b50610120600480360381019061011b919061202c565b6108bc565b60405161012d9190611fb3565b60405180910390f35b34801561014257600080fd5b5061015d60048036038101906101589190612093565b6108f5565b60405161016a91906120db565b60405180910390f35b34801561017f57600080fd5b5061019a600480360381019061019591906120f6565b610915565b6040516101a79190612250565b60405180910390f35b3480156101bc57600080fd5b506101d760048036038101906101d29190612272565b610a15565b005b3480156101e557600080fd5b5061020060048036038101906101fb9190612093565b610d26565b60405161020d91906123ba565b60405180910390f35b34801561022257600080fd5b5061023d60048036038101906102389190612432565b610ed6565b005b34801561024b57600080fd5b50610266600480360381019061026191906124a6565b611297565b604051610274929190612515565b60405180910390f35b34801561028957600080fd5b506102a4600480360381019061029f91906124a6565b611530565b6040516102b1919061253e565b60405180910390f35b3480156102c657600080fd5b506102e160048036038101906102dc9190612559565b6117c3565b005b3480156102ef57600080fd5b5061030a60048036038101906103059190612600565b6119f5565b005b34801561031857600080fd5b50610333600480360381019061032e91906120f6565b611bcf565b60405161034091906126d2565b60405180910390f35b34801561035557600080fd5b50610370600480360381019061036b9190612093565b611c86565b60405161037d91906120db565b60405180910390f35b60003373ffffffffffffffffffffffffffffffffffffffff1660008088815260200190815260200160002060000160009054906101000a900473ffffffffffffffffffffffffffffffffffffffff1673ffffffffffffffffffffffffffffffffffffffff160361042b576040517f08c379a000000000000000000000000000000000000000000000000000000000815260040161042290612766565b60405180910390fd5b600073ffffffffffffffffffffffffffffffffffffffff1660008088815260200190815260200160002060000160009054906101000a900473ffffffffffffffffffffffffffffffffffffffff1673ffffffffffffffffffffffffffffffffffffffff16036104cf576040517f08c379a00000000000000000000000000000000000000000000000000000000081526004016104c6906127f8565b60405180910390fd5b838510610511576040517f08c379a00000000000000000000000000000000000000000000000000000000081526004016105089061288a565b60405180910390fd5b60008060008881526020019081526020016000206040518060800160405290816000820160009054906101000a900473ffffffffffffffffffffffffffffffffffffffff1673ffffffffffffffffffffffffffffffffffffffff1673ffffffffffffffffffffffffffffffffffffffff168152602001600182018054610596906128d9565b80601f01602080910402602001604051908101604052809291908181526020018280546105c2906128d9565b801561060f5780601f106105e45761010080835404028352916020019161060f565b820191906000526020600020905b8154815290600101906020018083116105f257829003601f168201915b50505050508152602001600282018054610628906128d9565b80601f0160208091040260200160405190810160405280929190818152602001828054610654906128d9565b80156106a15780601f10610676576101008083540402835291602001916106a1565b820191906000526020600020905b81548152906001019060200180831161068457829003601f168201915b505050505081526020016003820154815250509050600081606001516305265c0088886106ce9190612939565b6106d8919061299c565b6106e291906129cd565b905080341015610727576040517f08c379a000000000000000000000000000000000000000000000000000000000815260040161071e90612a73565b60405180910390fd5b600033836000015189896040516020016107449493929190612afc565b6040516020818303038152906040528051906020012090508160056000856000015173ffffffffffffffffffffffffffffffffffffffff1673ffffffffffffffffffffffffffffffffffffffff16815260200190815260200160002060003373ffffffffffffffffffffffffffffffffffffffff1673ffffffffffffffffffffffffffffffffffffffff1681526020019081526020016000206000838152602001908152602001600020819055503073ffffffffffffffffffffffffffffffffffffffff166108fc839081150290604051600060405180830381858888f19350505050158015610838573d6000803e3d6000fd5b5088836000015173ffffffffffffffffffffffffffffffffffffffff163373ffffffffffffffffffffffffffffffffffffffff167fd24618657c44b9c39dcd93cc9d2f20ccc8f2b080ae4e0e8d8002f547b1753622848c8c888d8d6040516108a596959493929190612b86565b60405180910390a480935050505095945050505050565b6000848484846040516020016108d59493929190612afc565b604051602081830303815290604052805190602001209050949350505050565b60016020528060005260406000206000915054906101000a900460ff1681565b61091d611cb0565b6002600083815260200190815260200160002060008481526020019081526020016000206040518060800160405290816000820160009054906101000a900460ff16151515158152602001600182018054610977906128d9565b80601f01602080910402602001604051908101604052809291908181526020018280546109a3906128d9565b80156109f05780601f106109c5576101008083540402835291602001916109f0565b820191906000526020600020905b8154815290600101906020018083116109d357829003601f168201915b5050505050815260200160028201548152602001600382015481525050905092915050565b3373ffffffffffffffffffffffffffffffffffffffff166000808a815260200190815260200160002060000160009054906101000a900473ffffffffffffffffffffffffffffffffffffffff1673ffffffffffffffffffffffffffffffffffffffff1614610ab8576040517f08c379a0000000000000000000000000000000000000000000000000000000008152600401610aaf90612c54565b60405180910390fd5b848610610afa576040517f08c379a0000000000000000000000000000000000000000000000000000000008152600401610af190612ce6565b60405180910390fd5b426103e886610b09919061299c565b1115610b4a576040517f08c379a0000000000000000000000000000000000000000000000000000000008152600401610b4190612d78565b60405180910390fd5b60001515600260008a8152602001908152602001600020600089815260200190815260200160002060000160009054906101000a900460ff16151514610bc5576040517f08c379a0000000000000000000000000000000000000000000000000000000008152600401610bbc90612de4565b60405180910390fd5b8383600360008b815260200190815260200160002060008a81526020019081526020016000209190610bf8929190611cda565b50604051806080016040528060011515815260200183838080601f016020809104026020016040519081016040528093929190818152602001838380828437600081840152601f19601f82011690508083019250505050505050815260200187815260200186815250600260008a8152602001908152602001600020600089815260200190815260200160002060008201518160000160006101000a81548160ff0219169083151502179055506020820151816001019080519060200190610cc1929190611d60565b50604082015181600201556060820151816003015590505086887fca0f06ecdb8cf15a2169adfbe9b701a7ec852be74babd2dfb5fbcc8cd3276f9a888886868a8a604051610d1496959493929190612e04565b60405180910390a35050505050505050565b610d2e611de6565b6000808381526020019081526020016000206040518060800160405290816000820160009054906101000a900473ffffffffffffffffffffffffffffffffffffffff1673ffffffffffffffffffffffffffffffffffffffff1673ffffffffffffffffffffffffffffffffffffffff168152602001600182018054610db1906128d9565b80601f0160208091040260200160405190810160405280929190818152602001828054610ddd906128d9565b8015610e2a5780601f10610dff57610100808354040283529160200191610e2a565b820191906000526020600020905b815481529060010190602001808311610e0d57829003601f168201915b50505050508152602001600282018054610e43906128d9565b80601f0160208091040260200160405190810160405280929190818152602001828054610e6f906128d9565b8015610ebc5780601f10610e9157610100808354040283529160200191610ebc565b820191906000526020600020905b815481529060010190602001808311610e9f57829003601f168201915b505050505081526020016003820154815250509050919050565b600073ffffffffffffffffffffffffffffffffffffffff1660008086815260200190815260200160002060000160009054906101000a900473ffffffffffffffffffffffffffffffffffffffff1673ffffffffffffffffffffffffffffffffffffffff1603610f7a576040517f08c379a0000000000000000000000000000000000000000000000000000000008152600401610f71906127f8565b60405180910390fd5b60008060008681526020019081526020016000206040518060800160405290816000820160009054906101000a900473ffffffffffffffffffffffffffffffffffffffff1673ffffffffffffffffffffffffffffffffffffffff1673ffffffffffffffffffffffffffffffffffffffff168152602001600182018054610fff906128d9565b80601f016020809104026020016040519081016040528092919081815260200182805461102b906128d9565b80156110785780601f1061104d57610100808354040283529160200191611078565b820191906000526020600020905b81548152906001019060200180831161105b57829003601f168201915b50505050508152602001600282018054611091906128d9565b80601f01602080910402602001604051908101604052809291908181526020018280546110bd906128d9565b801561110a5780601f106110df5761010080835404028352916020019161110a565b820191906000526020600020905b8154815290600101906020018083116110ed57829003601f168201915b505050505081526020016003820154815250509050600061112c868686611530565b90508060056000846000015173ffffffffffffffffffffffffffffffffffffffff1673ffffffffffffffffffffffffffffffffffffffff16815260200190815260200160002060003373ffffffffffffffffffffffffffffffffffffffff1673ffffffffffffffffffffffffffffffffffffffff168152602001908152602001600020600085815260200190815260200160002060008282546111cf9190612939565b92505081905550816000015173ffffffffffffffffffffffffffffffffffffffff166108fc829081150290604051600060405180830381858888f19350505050158015611220573d6000803e3d6000fd5b5082826000015173ffffffffffffffffffffffffffffffffffffffff163373ffffffffffffffffffffffffffffffffffffffff167fe52added844a6489c27a47ef615a3af3c44bbb20d38d5f7ab4e4bc45e4bb279588888660405161128793929190612ecd565b60405180910390a4505050505050565b60008060008060008781526020019081526020016000206040518060800160405290816000820160009054906101000a900473ffffffffffffffffffffffffffffffffffffffff1673ffffffffffffffffffffffffffffffffffffffff1673ffffffffffffffffffffffffffffffffffffffff16815260200160018201805461131f906128d9565b80601f016020809104026020016040519081016040528092919081815260200182805461134b906128d9565b80156113985780601f1061136d57610100808354040283529160200191611398565b820191906000526020600020905b81548152906001019060200180831161137b57829003601f168201915b505050505081526020016002820180546113b1906128d9565b80601f01602080910402602001604051908101604052809291908181526020018280546113dd906128d9565b801561142a5780601f106113ff5761010080835404028352916020019161142a565b820191906000526020600020905b81548152906001019060200180831161140d57829003601f168201915b5050505050815260200160038201548152505090506000805b868690508110156114fb5760026000898152602001908152602001600020600088888481811061147657611475612eff565b5b90506020020135815260200190815260200160002060020154600260008a815260200190815260200160002060008989858181106114b7576114b6612eff565b5b905060200201358152602001908152602001600020600301546114da9190612939565b826114e59190612f2e565b91506001816114f49190612f2e565b9050611443565b50600082606001516305265c0083611513919061299c565b61151d91906129cd565b9050808294509450505050935093915050565b6000806000808681526020019081526020016000206040518060800160405290816000820160009054906101000a900473ffffffffffffffffffffffffffffffffffffffff1673ffffffffffffffffffffffffffffffffffffffff1673ffffffffffffffffffffffffffffffffffffffff1681526020016001820180546115b6906128d9565b80601f01602080910402602001604051908101604052809291908181526020018280546115e2906128d9565b801561162f5780601f106116045761010080835404028352916020019161162f565b820191906000526020600020905b81548152906001019060200180831161161257829003601f168201915b50505050508152602001600282018054611648906128d9565b80601f0160208091040260200160405190810160405280929190818152602001828054611674906128d9565b80156116c15780601f10611696576101008083540402835291602001916116c1565b820191906000526020600020905b8154815290600101906020018083116116a457829003601f168201915b5050505050815260200160038201548152505090506000805b858590508110156117925760026000888152602001908152602001600020600087878481811061170d5761170c612eff565b5b9050602002013581526020019081526020016000206002015460026000898152602001908152602001600020600088888581811061174e5761174d612eff565b5b905060200201358152602001908152602001600020600301546117719190612939565b8261177c9190612f2e565b915060018161178b9190612f2e565b90506116da565b50600082606001516305265c00836117aa919061299c565b6117b491906129cd565b90508093505050509392505050565b6117cc86611c86565b1561180c576040517f08c379a000000000000000000000000000000000000000000000000000000000815260040161180390612fd0565b60405180910390fd5b60405180608001604052803373ffffffffffffffffffffffffffffffffffffffff16815260200186868080601f016020809104026020016040519081016040528093929190818152602001838380828437600081840152601f19601f82011690508083019250505050505050815260200184848080601f016020809104026020016040519081016040528093929190818152602001838380828437600081840152601f19601f8201169050808301925050505050505081526020018281525060008088815260200190815260200160002060008201518160000160006101000a81548173ffffffffffffffffffffffffffffffffffffffff021916908373ffffffffffffffffffffffffffffffffffffffff1602179055506020820151816001019080519060200190611940929190611d60565b50604082015181600201908051906020019061195d929190611d60565b5060608201518160030155905050600180600088815260200190815260200160002060006101000a81548160ff021916908315150217905550853373ffffffffffffffffffffffffffffffffffffffff167f59b22e4733b4344b2828d599cd33cc61b78309d40cc66055b4b86ea31a38a25387878787876040516119e5959493929190612ff0565b60405180910390a3505050505050565b3373ffffffffffffffffffffffffffffffffffffffff1660008087815260200190815260200160002060000160009054906101000a900473ffffffffffffffffffffffffffffffffffffffff1673ffffffffffffffffffffffffffffffffffffffff1614611a98576040517f08c379a0000000000000000000000000000000000000000000000000000000008152600401611a8f90613085565b60405180910390fd5b6000600560003373ffffffffffffffffffffffffffffffffffffffff1673ffffffffffffffffffffffffffffffffffffffff16815260200190815260200160002060008573ffffffffffffffffffffffffffffffffffffffff1673ffffffffffffffffffffffffffffffffffffffff16815260200190815260200160002060008681526020019081526020016000205403611b68576040517f08c379a0000000000000000000000000000000000000000000000000000000008152600401611b5f906130f1565b60405180910390fd5b8181600460008781526020019081526020016000209190611b8a929190611cda565b507f989a1f7c942f5dd18bf0ae18c896557df75f789c052f6ec5bea848c1eac4cbd483858484604051611bc09493929190613120565b60405180910390a15050505050565b60606003600084815260200190815260200160002060008381526020019081526020016000208054611c00906128d9565b80601f0160208091040260200160405190810160405280929190818152602001828054611c2c906128d9565b8015611c795780601f10611c4e57610100808354040283529160200191611c79565b820191906000526020600020905b815481529060010190602001808311611c5c57829003601f168201915b5050505050905092915050565b60006001600083815260200190815260200160002060009054906101000a900460ff169050919050565b60405180608001604052806000151581526020016060815260200160008152602001600081525090565b828054611ce6906128d9565b90600052602060002090601f016020900481019282611d085760008555611d4f565b82601f10611d2157803560ff1916838001178555611d4f565b82800160010185558215611d4f579182015b82811115611d4e578235825591602001919060010190611d33565b5b509050611d5c9190611e24565b5090565b828054611d6c906128d9565b90600052602060002090601f016020900481019282611d8e5760008555611dd5565b82601f10611da757805160ff1916838001178555611dd5565b82800160010185558215611dd5579182015b82811115611dd4578251825591602001919060010190611db9565b5b509050611de29190611e24565b5090565b6040518060800160405280600073ffffffffffffffffffffffffffffffffffffffff1681526020016060815260200160608152602001600081525090565b5b80821115611e3d576000816000905550600101611e25565b5090565b600080fd5b600080fd5b6000819050919050565b611e5e81611e4b565b8114611e6957600080fd5b50565b600081359050611e7b81611e55565b92915050565b6000819050919050565b611e9481611e81565b8114611e9f57600080fd5b50565b600081359050611eb181611e8b565b92915050565b600080fd5b600080fd5b600080fd5b60008083601f840112611edc57611edb611eb7565b5b8235905067ffffffffffffffff811115611ef957611ef8611ebc565b5b602083019150836001820283011115611f1557611f14611ec1565b5b9250929050565b600080600080600060808688031215611f3857611f37611e41565b5b6000611f4688828901611e6c565b9550506020611f5788828901611ea2565b9450506040611f6888828901611ea2565b935050606086013567ffffffffffffffff811115611f8957611f88611e46565b5b611f9588828901611ec6565b92509250509295509295909350565b611fad81611e4b565b82525050565b6000602082019050611fc86000830184611fa4565b92915050565b600073ffffffffffffffffffffffffffffffffffffffff82169050919050565b6000611ff982611fce565b9050919050565b61200981611fee565b811461201457600080fd5b50565b60008135905061202681612000565b92915050565b6000806000806080858703121561204657612045611e41565b5b600061205487828801612017565b945050602061206587828801612017565b935050604061207687828801611ea2565b925050606061208787828801611ea2565b91505092959194509250565b6000602082840312156120a9576120a8611e41565b5b60006120b784828501611e6c565b91505092915050565b60008115159050919050565b6120d5816120c0565b82525050565b60006020820190506120f060008301846120cc565b92915050565b6000806040838503121561210d5761210c611e41565b5b600061211b85828601611e6c565b925050602061212c85828601611e6c565b9150509250929050565b61213f816120c0565b82525050565b600081519050919050565b600082825260208201905092915050565b60005b8381101561217f578082015181840152602081019050612164565b8381111561218e576000848401525b50505050565b6000601f19601f8301169050919050565b60006121b082612145565b6121ba8185612150565b93506121ca818560208601612161565b6121d381612194565b840191505092915050565b6121e781611e81565b82525050565b60006080830160008301516122056000860182612136565b506020830151848203602086015261221d82826121a5565b915050604083015161223260408601826121de565b50606083015161224560608601826121de565b508091505092915050565b6000602082019050818103600083015261226a81846121ed565b905092915050565b60008060008060008060008060c0898b03121561229257612291611e41565b5b60006122a08b828c01611e6c565b98505060206122b18b828c01611e6c565b97505060406122c28b828c01611ea2565b96505060606122d38b828c01611ea2565b955050608089013567ffffffffffffffff8111156122f4576122f3611e46565b5b6123008b828c01611ec6565b945094505060a089013567ffffffffffffffff81111561232357612322611e46565b5b61232f8b828c01611ec6565b92509250509295985092959890939650565b61234a81611fee565b82525050565b60006080830160008301516123686000860182612341565b506020830151848203602086015261238082826121a5565b9150506040830151848203604086015261239a82826121a5565b91505060608301516123af60608601826121de565b508091505092915050565b600060208201905081810360008301526123d48184612350565b905092915050565b60008083601f8401126123f2576123f1611eb7565b5b8235905067ffffffffffffffff81111561240f5761240e611ebc565b5b60208301915083602082028301111561242b5761242a611ec1565b5b9250929050565b6000806000806060858703121561244c5761244b611e41565b5b600061245a87828801611e6c565b945050602085013567ffffffffffffffff81111561247b5761247a611e46565b5b612487878288016123dc565b9350935050604061249a87828801611e6c565b91505092959194509250565b6000806000604084860312156124bf576124be611e41565b5b60006124cd86828701611e6c565b935050602084013567ffffffffffffffff8111156124ee576124ed611e46565b5b6124fa868287016123dc565b92509250509250925092565b61250f81611e81565b82525050565b600060408201905061252a6000830185612506565b6125376020830184612506565b9392505050565b60006020820190506125536000830184612506565b92915050565b6000806000806000806080878903121561257657612575611e41565b5b600061258489828a01611e6c565b965050602087013567ffffffffffffffff8111156125a5576125a4611e46565b5b6125b189828a01611ec6565b9550955050604087013567ffffffffffffffff8111156125d4576125d3611e46565b5b6125e089828a01611ec6565b935093505060606125f389828a01611ea2565b9150509295509295509295565b60008060008060006080868803121561261c5761261b611e41565b5b600061262a88828901611e6c565b955050602061263b88828901611e6c565b945050604061264c88828901612017565b935050606086013567ffffffffffffffff81111561266d5761266c611e46565b5b61267988828901611ec6565b92509250509295509295909350565b600082825260208201905092915050565b60006126a482612145565b6126ae8185612688565b93506126be818560208601612161565b6126c781612194565b840191505092915050565b600060208201905081810360008301526126ec8184612699565b905092915050565b7f5075627375623a2063616e206e6f742073756273637269626520746f20796f7560008201527f72206f776e206465766963650000000000000000000000000000000000000000602082015250565b6000612750602c83612688565b915061275b826126f4565b604082019050919050565b6000602082019050818103600083015261277f81612743565b9050919050565b7f5075627375623a20646576696365206973206e6f74207265676973746572656460008201527f2079657400000000000000000000000000000000000000000000000000000000602082015250565b60006127e2602483612688565b91506127ed82612786565b604082019050919050565b60006020820190508181036000830152612811816127d5565b9050919050565b7f5075627375623a20656e642074696d65206d756368206c61726765722074686160008201527f6e20626567696e2074696d650000000000000000000000000000000000000000602082015250565b6000612874602c83612688565b915061287f82612818565b604082019050919050565b600060208201905081810360008301526128a381612867565b9050919050565b7f4e487b7100000000000000000000000000000000000000000000000000000000600052602260045260246000fd5b600060028204905060018216806128f157607f821691505b602082108103612904576129036128aa565b5b50919050565b7f4e487b7100000000000000000000000000000000000000000000000000000000600052601160045260246000fd5b600061294482611e81565b915061294f83611e81565b9250828210156129625761296161290a565b5b828203905092915050565b7f4e487b7100000000000000000000000000000000000000000000000000000000600052601260045260246000fd5b60006129a782611e81565b91506129b283611e81565b9250826129c2576129c161296d565b5b828204905092915050565b60006129d882611e81565b91506129e383611e81565b9250817fffffffffffffffffffffffffffffffffffffffffffffffffffffffffffffffff0483118215151615612a1c57612a1b61290a565b5b828202905092915050565b7f416d6f756e742069732073756666696369656e74000000000000000000000000600082015250565b6000612a5d601483612688565b9150612a6882612a27565b602082019050919050565b60006020820190508181036000830152612a8c81612a50565b9050919050565b60008160601b9050919050565b6000612aab82612a93565b9050919050565b6000612abd82612aa0565b9050919050565b612ad5612ad082611fee565b612ab2565b82525050565b6000819050919050565b612af6612af182611e81565b612adb565b82525050565b6000612b088287612ac4565b601482019150612b188286612ac4565b601482019150612b288285612ae5565b602082019150612b388284612ae5565b60208201915081905095945050505050565b82818337600083830152505050565b6000612b658385612688565b9350612b72838584612b4a565b612b7b83612194565b840190509392505050565b600060a082019050612b9b6000830189611fa4565b612ba86020830188612506565b612bb56040830187612506565b612bc26060830186612506565b8181036080830152612bd5818486612b59565b9050979650505050505050565b7f5075625375623a20596f7520617265206e6f7420746865206f776e6572206f6660008201527f2074686973206465766963650000000000000000000000000000000000000000602082015250565b6000612c3e602c83612688565b9150612c4982612be2565b604082019050919050565b60006020820190508181036000830152612c6d81612c31565b9050919050565b7f5075627375623a2066726f6d206d75737420736d616c6c6572207468616e207460008201527f6f00000000000000000000000000000000000000000000000000000000000000602082015250565b6000612cd0602183612688565b9150612cdb82612c74565b604082019050919050565b60006020820190508181036000830152612cff81612cc3565b9050919050565b7f5075627375623a20746f206d75737420736d616c6c6572207468616e2063757260008201527f72656e742074696d650000000000000000000000000000000000000000000000602082015250565b6000612d62602983612688565b9150612d6d82612d06565b604082019050919050565b60006020820190508181036000830152612d9181612d55565b9050919050565b7f4475706c69636174652064617461204944000000000000000000000000000000600082015250565b6000612dce601183612688565b9150612dd982612d98565b602082019050919050565b60006020820190508181036000830152612dfd81612dc1565b9050919050565b6000608082019050612e196000830189612506565b612e266020830188612506565b8181036040830152612e39818688612b59565b90508181036060830152612e4e818486612b59565b9050979650505050505050565b600082825260208201905092915050565b600080fd5b6000612e7d8385612e5b565b93507f07ffffffffffffffffffffffffffffffffffffffffffffffffffffffffffffff831115612eb057612eaf612e6c565b5b602083029250612ec1838584612b4a565b82840190509392505050565b60006040820190508181036000830152612ee8818587612e71565b9050612ef76020830184612506565b949350505050565b7f4e487b7100000000000000000000000000000000000000000000000000000000600052603260045260246000fd5b6000612f3982611e81565b9150612f4483611e81565b9250827fffffffffffffffffffffffffffffffffffffffffffffffffffffffffffffffff03821115612f7957612f7861290a565b5b828201905092915050565b7f5075625375623a2049642068617665206265656e207573656400000000000000600082015250565b6000612fba601983612688565b9150612fc582612f84565b602082019050919050565b60006020820190508181036000830152612fe981612fad565b9050919050565b6000606082019050818103600083015261300b818789612b59565b90508181036020830152613020818587612b59565b905061302f6040830184612506565b9695505050505050565b7f5075627375623a20596f7520617265206e6f7420746865206f776e6572000000600082015250565b600061306f601d83612688565b915061307a82613039565b602082019050919050565b6000602082019050818103600083015261309e81613062565b9050919050565b7f5075625375623a205472616e73616374696f6e206e6f74206578697374000000600082015250565b60006130db601d83612688565b91506130e6826130a5565b602082019050919050565b6000602082019050818103600083015261310a816130ce565b9050919050565b61311a81611fee565b82525050565b60006060820190506131356000830187613111565b6131426020830186611fa4565b8181036040830152613155818486612b59565b90509594505050505056fea2646970667358221220f2edd1ef489c469b112e052aabcd6d47b4acc558ff4015b6b17e2be551d8137964736f6c634300080e0033",
  "immutableReferences": {},
  "source": "// SPDX-License-Identifier: MIT\r\npragma solidity ^0.8.0;\r\n\r\ncontract PubSub {\r\n    uint256 private constant MISECDAY = 86400000;\r\n\r\n    mapping(bytes32 => Devices) userDevices; // deviceID to device\r\n\r\n    mapping(bytes32 => bool) public usedId; // deviceID to bool\r\n\r\n    mapping(bytes32 => mapping(bytes32 => SensorData)) devicesData; // from deviceID to dataID\r\n\r\n    mapping(bytes32 => mapping(bytes32 => string)) rek; // from deviceID to dataID to  rek\r\n\r\n    mapping (bytes32 => string) updatedKey; //txID to keyUri\r\n\r\n    mapping(address => mapping(address => mapping(bytes32 => uint256))) transactionList; // from DO to DU to transactionID to amount\r\n    \r\n    struct Devices {\r\n        address owner;\r\n        string name;\r\n        string describe;\r\n        uint256 pricePerDay;\r\n    }\r\n\r\n    struct SensorData {\r\n        bool isUsed;\r\n        string uri;\r\n        uint256 from;\r\n        uint256 to;\r\n    }\r\n\r\n    event Register(\r\n        address indexed owner,\r\n        bytes32 indexed id,\r\n        string deviceName,\r\n        string _describe,\r\n        uint256 price\r\n    );\r\n    event Subscribe(\r\n        address indexed from,\r\n        address indexed to,\r\n        bytes32 indexed deviceID,\r\n        bytes32 txID,\r\n        uint256 start,\r\n        uint256 end,\r\n        uint256 price,\r\n        string pk\r\n    );\r\n    \r\n    event NewData(\r\n        bytes32 indexed deviceID,\r\n        bytes32 indexed dataID,\r\n        uint256 _from,\r\n        uint256 _to,\r\n        string _dataUri,\r\n        string _keyUri\r\n    );\r\n\r\n    event NewKey(\r\n        address to,\r\n        bytes32 txID,\r\n        string keyUri\r\n    );\r\n\r\n    event Confirm(\r\n        address indexed from,\r\n        address indexed to,\r\n        bytes32[] dataID,\r\n        uint256 amount,\r\n        bytes32 indexed txId\r\n    );\r\n\r\n    fallback() external payable {}\r\n\r\n    function register(\r\n        bytes32 deviceID,\r\n        string calldata deviceName,\r\n        string calldata _describe,\r\n        uint256 pricePerDay\r\n    ) external {\r\n        require(!isUsed(deviceID), \"PubSub: Id have been used\");\r\n        userDevices[deviceID] = Devices(\r\n            msg.sender,\r\n            deviceName,\r\n            _describe,\r\n            pricePerDay\r\n        );\r\n        usedId[deviceID] = true;\r\n        emit Register(msg.sender, deviceID, deviceName, _describe, pricePerDay);\r\n    }\r\n\r\n    function isUsed(bytes32 id) public view returns (bool used) {\r\n        used = usedId[id];\r\n    }\r\n\r\n    function publish(\r\n        bytes32 deviceID,\r\n        bytes32 dataID,\r\n        uint256 _from,\r\n        uint256 _to,\r\n        string calldata keyUri,\r\n        string calldata dataUri\r\n    ) external {\r\n        require(\r\n            userDevices[deviceID].owner == msg.sender,\r\n            \"PubSub: You are not the owner of this device\"\r\n        );\r\n        require(_from < _to,\"Pubsub: from must smaller than to\");\r\n        require(_to/1000 <= block.timestamp,\"Pubsub: to must smaller than current time\");\r\n        require(devicesData[deviceID][dataID].isUsed == false, \"Duplicate data ID\");\r\n        rek[deviceID][dataID] = keyUri;\r\n        devicesData[deviceID][dataID] = SensorData(true, dataUri, _from, _to);\r\n        emit NewData(deviceID, dataID, _from, _to, dataUri, keyUri);\r\n    }\r\n\r\n    function updateKey(\r\n        bytes32 deviceID,\r\n        bytes32 txID,\r\n        address to,\r\n        string calldata keyUri\r\n    ) public {\r\n        require(\r\n            userDevices[deviceID].owner == msg.sender,\r\n            \"Pubsub: You are not the owner\"\r\n        );\r\n        require(transactionList[msg.sender][to][txID] != 0, \"PubSub: Transaction not exist\");\r\n        updatedKey[txID] = keyUri;\r\n        emit NewKey(to, txID, keyUri);\r\n    }\r\n\r\n    function subscribe(\r\n        bytes32 deviceID,\r\n        uint256 _from,\r\n        uint256 _to,\r\n        string calldata _pubKey\r\n    ) external payable returns (bytes32) {\r\n        require(userDevices[deviceID].owner != msg.sender, \"Pubsub: can not subscribe to your own device\");\r\n        require(\r\n            userDevices[deviceID].owner != address(0x0),\r\n            \"Pubsub: device is not registered yet\"\r\n        );\r\n        require(_from < _to, \"Pubsub: end time much larger than begin time\");\r\n        Devices memory device = userDevices[deviceID];\r\n        uint256 price = ((_to - _from) / MISECDAY) * device.pricePerDay;\r\n        require(msg.value >= price, \"Amount is sufficient\");\r\n        \r\n        bytes32 txId = keccak256(\r\n            abi.encodePacked(msg.sender, device.owner, _from,_to )\r\n        );\r\n        transactionList[device.owner][msg.sender][txId] = price;\r\n        payable(this).transfer(price);\r\n        emit Subscribe(\r\n            msg.sender,\r\n            device.owner,\r\n            deviceID,\r\n            txId,\r\n            _from,\r\n            _to,\r\n            price,\r\n            _pubKey\r\n        );\r\n        return txId;\r\n    }\r\n\r\n    function calPackagePrice(bytes32 deviceID, bytes32[] calldata dataID)\r\n        public\r\n        view\r\n        returns (uint256)\r\n    {\r\n        Devices memory device = userDevices[deviceID];\r\n        uint256 duration = 0;\r\n        for (uint256 i; i < dataID.length; i = i + 1) {\r\n            duration +=\r\n                devicesData[deviceID][dataID[i]].to -\r\n                devicesData[deviceID][dataID[i]].from;\r\n        }\r\n        uint256 price = (duration / MISECDAY) * device.pricePerDay;\r\n        return price;\r\n    }\r\n\r\n    function calPackagePrice2(bytes32 deviceID, bytes32[] calldata dataID)\r\n        public\r\n        view\r\n        returns (uint256,uint256)\r\n    {\r\n        Devices memory device = userDevices[deviceID];\r\n        uint256 duration = 0;\r\n        for (uint256 i; i < dataID.length; i = i + 1) {\r\n            duration +=\r\n                devicesData[deviceID][dataID[i]].to -\r\n                devicesData[deviceID][dataID[i]].from;\r\n        }\r\n        uint256 price = (duration / MISECDAY) * device.pricePerDay;\r\n        return (price,duration);\r\n    }\r\n\r\n    function confirm(\r\n        bytes32 deviceID,\r\n        bytes32[] calldata dataID,\r\n        bytes32 txId\r\n    ) external {\r\n        require(\r\n            userDevices[deviceID].owner != address(0x0),\r\n            \"Pubsub: device is not registered yet\"\r\n        );\r\n        Devices memory device = userDevices[deviceID];\r\n        uint256 totalprice = calPackagePrice(deviceID, dataID);\r\n        transactionList[device.owner][msg.sender][txId] -= totalprice;\r\n        payable(device.owner).transfer(totalprice);\r\n        emit Confirm(msg.sender, device.owner, dataID, totalprice, txId);\r\n    }\r\n\r\n    function getData(bytes32 dataID, bytes32 deviceID)\r\n        external\r\n        view\r\n        returns (SensorData memory)\r\n    {\r\n        return devicesData[deviceID][dataID];\r\n    }\r\n\r\n    function getRek(bytes32 deviceID, bytes32 dataID)\r\n        external\r\n        view\r\n        returns (string memory)\r\n    {\r\n        return rek[deviceID][dataID];\r\n    }\r\n\r\n    function getTx(address requester, address owner,uint256 from,uint256 to) pure public returns (bytes32) {\r\n        return keccak256(\r\n            abi.encodePacked(requester, owner, from,to )\r\n        );\r\n    }\r\n\r\n    function getDevice(bytes32 deviceID) external view returns  (Devices memory) {\r\n        return userDevices[deviceID];\r\n    }\r\n}\r\n",
  "sourcePath": "D:\\File Bai Hoc\\Luan Van\\Implement-pub-sub-in-blockchain\\contracts\\PubSub.sol",
  "compiler": {
    "name": "solc",
    "version": "0.8.14+commit.80d49f37.Emscripten.clang"
  },
  "schemaVersion": "3.4.2",
  "updatedAt": "2022-05-28T02:40:10.139Z",
  "networkType": "ethereum",
  "devdoc": {
    "kind": "dev",
    "methods": {},
    "version": 1
  },
  "userdoc": {
    "kind": "user",
    "methods": {},
    "version": 1
  }
}