{
  "contractName": "PubSub",
  "abi": [
    {
      "anonymous": false,
      "inputs": [
        {
          "indexed": true,
          "internalType": "address",
          "name": "from",
          "type": "address"
        },
        {
          "indexed": true,
          "internalType": "address",
          "name": "to",
          "type": "address"
        },
        {
          "indexed": true,
          "internalType": "bytes32",
          "name": "deviceID",
          "type": "bytes32"
        },
        {
          "indexed": false,
          "internalType": "uint256",
          "name": "txID",
          "type": "uint256"
        },
        {
          "indexed": false,
          "internalType": "bytes32[]",
          "name": "dataID",
          "type": "bytes32[]"
        },
        {
          "indexed": false,
          "internalType": "uint256",
          "name": "price",
          "type": "uint256"
        },
        {
          "indexed": false,
          "internalType": "string",
          "name": "pk",
          "type": "string"
        }
      ],
      "name": "BuyPackage",
      "type": "event"
    },
    {
      "anonymous": false,
      "inputs": [
        {
          "indexed": true,
          "internalType": "address",
          "name": "from",
          "type": "address"
        },
        {
          "indexed": true,
          "internalType": "address",
          "name": "to",
          "type": "address"
        },
        {
          "indexed": false,
          "internalType": "bytes32[]",
          "name": "dataID",
          "type": "bytes32[]"
        },
        {
          "indexed": false,
          "internalType": "uint256",
          "name": "amount",
          "type": "uint256"
        },
        {
          "indexed": true,
          "internalType": "bytes32",
          "name": "txId",
          "type": "bytes32"
        }
      ],
      "name": "Confirm",
      "type": "event"
    },
    {
      "anonymous": false,
      "inputs": [
        {
          "indexed": true,
          "internalType": "bytes32",
          "name": "deviceID",
          "type": "bytes32"
        },
        {
          "indexed": true,
          "internalType": "bytes32",
          "name": "dataID",
          "type": "bytes32"
        },
        {
          "indexed": false,
          "internalType": "uint256",
          "name": "_from",
          "type": "uint256"
        },
        {
          "indexed": false,
          "internalType": "uint256",
          "name": "_to",
          "type": "uint256"
        },
        {
          "indexed": false,
          "internalType": "string",
          "name": "_dataUri",
          "type": "string"
        },
        {
          "indexed": false,
          "internalType": "string",
          "name": "_keyUri",
          "type": "string"
        }
      ],
      "name": "NewData",
      "type": "event"
    },
    {
      "anonymous": false,
      "inputs": [
        {
          "indexed": false,
          "internalType": "bytes32",
          "name": "keyID",
          "type": "bytes32"
        },
        {
          "indexed": false,
          "internalType": "string",
          "name": "uri",
          "type": "string"
        }
      ],
      "name": "NewKey",
      "type": "event"
    },
    {
      "anonymous": false,
      "inputs": [
        {
          "indexed": true,
          "internalType": "address",
          "name": "owner",
          "type": "address"
        },
        {
          "indexed": true,
          "internalType": "bytes32",
          "name": "id",
          "type": "bytes32"
        },
        {
          "indexed": false,
          "internalType": "string",
          "name": "deviceName",
          "type": "string"
        },
        {
          "indexed": false,
          "internalType": "string",
          "name": "_decribe",
          "type": "string"
        },
        {
          "indexed": false,
          "internalType": "uint256",
          "name": "price",
          "type": "uint256"
        }
      ],
      "name": "Register",
      "type": "event"
    },
    {
      "anonymous": false,
      "inputs": [
        {
          "indexed": true,
          "internalType": "address",
          "name": "from",
          "type": "address"
        },
        {
          "indexed": true,
          "internalType": "address",
          "name": "to",
          "type": "address"
        },
        {
          "indexed": true,
          "internalType": "bytes32",
          "name": "deviceID",
          "type": "bytes32"
        },
        {
          "indexed": false,
          "internalType": "bytes32",
          "name": "txID",
          "type": "bytes32"
        },
        {
          "indexed": false,
          "internalType": "uint256",
          "name": "start",
          "type": "uint256"
        },
        {
          "indexed": false,
          "internalType": "uint256",
          "name": "end",
          "type": "uint256"
        },
        {
          "indexed": false,
          "internalType": "uint256",
          "name": "price",
          "type": "uint256"
        },
        {
          "indexed": false,
          "internalType": "string",
          "name": "pk",
          "type": "string"
        }
      ],
      "name": "Subscribe",
      "type": "event"
    },
    {
      "stateMutability": "payable",
      "type": "fallback",
      "payable": true
    },
    {
      "inputs": [
        {
          "internalType": "bytes32",
          "name": "",
          "type": "bytes32"
        }
      ],
      "name": "usedId",
      "outputs": [
        {
          "internalType": "bool",
          "name": "",
          "type": "bool"
        }
      ],
      "stateMutability": "view",
      "type": "function",
      "constant": true
    },
    {
      "inputs": [
        {
          "internalType": "bytes32",
          "name": "deviceID",
          "type": "bytes32"
        },
        {
          "internalType": "string",
          "name": "deviceName",
          "type": "string"
        },
        {
          "internalType": "string",
          "name": "_decribe",
          "type": "string"
        },
        {
          "internalType": "uint256",
          "name": "pricePerDay",
          "type": "uint256"
        }
      ],
      "name": "register",
      "outputs": [],
      "stateMutability": "nonpayable",
      "type": "function"
    },
    {
      "inputs": [
        {
          "internalType": "bytes32",
          "name": "id",
          "type": "bytes32"
        }
      ],
      "name": "isUsed",
      "outputs": [
        {
          "internalType": "bool",
          "name": "used",
          "type": "bool"
        }
      ],
      "stateMutability": "view",
      "type": "function",
      "constant": true
    },
    {
      "inputs": [
        {
          "internalType": "bytes32",
          "name": "deviceID",
          "type": "bytes32"
        },
        {
          "internalType": "bytes32",
          "name": "dataID",
          "type": "bytes32"
        },
        {
          "internalType": "uint256",
          "name": "_from",
          "type": "uint256"
        },
        {
          "internalType": "uint256",
          "name": "_to",
          "type": "uint256"
        },
        {
          "internalType": "string",
          "name": "keyUri",
          "type": "string"
        },
        {
          "internalType": "string",
          "name": "dataUri",
          "type": "string"
        }
      ],
      "name": "publish",
      "outputs": [],
      "stateMutability": "nonpayable",
      "type": "function"
    },
    {
      "inputs": [
        {
          "internalType": "bytes32",
          "name": "deviceID",
          "type": "bytes32"
        },
        {
          "internalType": "bytes32",
          "name": "dataID",
          "type": "bytes32"
        },
        {
          "internalType": "string",
          "name": "keyUri",
          "type": "string"
        }
      ],
      "name": "updateKey",
      "outputs": [],
      "stateMutability": "nonpayable",
      "type": "function"
    },
    {
      "inputs": [
        {
          "internalType": "bytes32",
          "name": "deviceID",
          "type": "bytes32"
        },
        {
          "internalType": "uint256",
          "name": "_from",
          "type": "uint256"
        },
        {
          "internalType": "uint256",
          "name": "_to",
          "type": "uint256"
        },
        {
          "internalType": "string",
          "name": "_pubKey",
          "type": "string"
        }
      ],
      "name": "subscribe",
      "outputs": [
        {
          "internalType": "bytes32",
          "name": "",
          "type": "bytes32"
        }
      ],
      "stateMutability": "payable",
      "type": "function",
      "payable": true
    },
    {
      "inputs": [
        {
          "internalType": "bytes32",
          "name": "deviceID",
          "type": "bytes32"
        },
        {
          "internalType": "bytes32[]",
          "name": "dataID",
          "type": "bytes32[]"
        }
      ],
      "name": "calPackagePrice",
      "outputs": [
        {
          "internalType": "uint256",
          "name": "",
          "type": "uint256"
        }
      ],
      "stateMutability": "view",
      "type": "function",
      "constant": true
    },
    {
      "inputs": [
        {
          "internalType": "bytes32",
          "name": "deviceID",
          "type": "bytes32"
        },
        {
          "internalType": "bytes32[]",
          "name": "dataID",
          "type": "bytes32[]"
        },
        {
          "internalType": "bytes32",
          "name": "txId",
          "type": "bytes32"
        }
      ],
      "name": "confirm",
      "outputs": [],
      "stateMutability": "nonpayable",
      "type": "function"
    },
    {
      "inputs": [
        {
          "internalType": "bytes32",
          "name": "dataID",
          "type": "bytes32"
        },
        {
          "internalType": "bytes32",
          "name": "deviceID",
          "type": "bytes32"
        }
      ],
      "name": "getData",
      "outputs": [
        {
          "internalType": "string",
          "name": "",
          "type": "string"
        }
      ],
      "stateMutability": "view",
      "type": "function",
      "constant": true
    },
    {
      "inputs": [
        {
          "internalType": "bytes32",
          "name": "deviceID",
          "type": "bytes32"
        },
        {
          "internalType": "bytes32",
          "name": "dataID",
          "type": "bytes32"
        }
      ],
      "name": "getRek",
      "outputs": [
        {
          "internalType": "string",
          "name": "",
          "type": "string"
        }
      ],
      "stateMutability": "view",
      "type": "function",
      "constant": true
    }
  ],
  "bytecode": "0x608060405234801561001057600080fd5b506125e5806100206000396000f3fe6080604052600436106100955760003560e01c80637e35c973116100595780637e35c97314610194578063a2c7e8b7146101bd578063b6e24aa1146101fa578063fb25b47c14610223578063fe255a181461026057610096565b806302c7a71b14610098578063139953bd146100c85780632e455f89146100f157806338609dea1461012e578063412034c31461016b57610096565b5b005b6100b260048036038101906100ad9190611679565b61029d565b6040516100bf9190611710565b60405180910390f35b3480156100d457600080fd5b506100ef60048036038101906100ea919061172b565b6106da565b005b3480156100fd57600080fd5b506101186004803603810190610113919061179f565b610832565b60405161012591906117e7565b60405180910390f35b34801561013a57600080fd5b5061015560048036038101906101509190611802565b610852565b60405161016291906118db565b60405180910390f35b34801561017757600080fd5b50610192600480360381019061018d91906118fd565b61090c565b005b3480156101a057600080fd5b506101bb60048036038101906101b69190611a22565b610b10565b005b3480156101c957600080fd5b506101e460048036038101906101df9190611bd4565b610ec6565b6040516101f19190611c3f565b60405180910390f35b34801561020657600080fd5b50610221600480360381019061021c9190611c5a565b611158565b005b34801561022f57600080fd5b5061024a60048036038101906102459190611802565b61138a565b60405161025791906118db565b60405180910390f35b34801561026c57600080fd5b506102876004803603810190610282919061179f565b611441565b60405161029491906117e7565b60405180910390f35b60008385036102e1576040517f08c379a00000000000000000000000000000000000000000000000000000000081526004016102d890611d73565b60405180910390fd5b600073ffffffffffffffffffffffffffffffffffffffff1660008088815260200190815260200160002060000160009054906101000a900473ffffffffffffffffffffffffffffffffffffffff1673ffffffffffffffffffffffffffffffffffffffff1603610385576040517f08c379a000000000000000000000000000000000000000000000000000000000815260040161037c90611e05565b60405180910390fd5b8385106103c7576040517f08c379a00000000000000000000000000000000000000000000000000000000081526004016103be90611e97565b60405180910390fd5b60008060008881526020019081526020016000206040518060800160405290816000820160009054906101000a900473ffffffffffffffffffffffffffffffffffffffff1673ffffffffffffffffffffffffffffffffffffffff1673ffffffffffffffffffffffffffffffffffffffff16815260200160018201805461044c90611ee6565b80601f016020809104026020016040519081016040528092919081815260200182805461047890611ee6565b80156104c55780601f1061049a576101008083540402835291602001916104c5565b820191906000526020600020905b8154815290600101906020018083116104a857829003601f168201915b505050505081526020016002820180546104de90611ee6565b80601f016020809104026020016040519081016040528092919081815260200182805461050a90611ee6565b80156105575780601f1061052c57610100808354040283529160200191610557565b820191906000526020600020905b81548152906001019060200180831161053a57829003601f168201915b505050505081526020016003820154815250509050600081606001516305265c0088886105849190611f46565b61058e9190611fa9565b6105989190611fda565b9050803410156105dd576040517f08c379a00000000000000000000000000000000000000000000000000000000081526004016105d490612080565b60405180910390fd5b6000338360000151426040516020016105f89392919061213b565b6040516020818303038152906040528051906020012090503073ffffffffffffffffffffffffffffffffffffffff166108fc839081150290604051600060405180830381858888f19350505050158015610656573d6000803e3d6000fd5b5088836000015173ffffffffffffffffffffffffffffffffffffffff163373ffffffffffffffffffffffffffffffffffffffff167fd24618657c44b9c39dcd93cc9d2f20ccc8f2b080ae4e0e8d8002f547b1753622848c8c888d8d6040516106c3969594939291906121b4565b60405180910390a480935050505095945050505050565b3373ffffffffffffffffffffffffffffffffffffffff1660008086815260200190815260200160002060000160009054906101000a900473ffffffffffffffffffffffffffffffffffffffff1673ffffffffffffffffffffffffffffffffffffffff161461077d576040517f08c379a00000000000000000000000000000000000000000000000000000000081526004016107749061225c565b60405180910390fd5b6001151560026000868152602001908152602001600020600085815260200190815260200160002060000160009054906101000a900460ff161515146107f8576040517f08c379a00000000000000000000000000000000000000000000000000000000081526004016107ef906122c8565b60405180910390fd5b8181600360008781526020019081526020016000206000868152602001908152602001600020919061082b92919061146b565b5050505050565b60016020528060005260406000206000915054906101000a900460ff1681565b6060600260008381526020019081526020016000206000848152602001908152602001600020600101805461088690611ee6565b80601f01602080910402602001604051908101604052809291908181526020018280546108b290611ee6565b80156108ff5780601f106108d4576101008083540402835291602001916108ff565b820191906000526020600020905b8154815290600101906020018083116108e257829003601f168201915b5050505050905092915050565b3373ffffffffffffffffffffffffffffffffffffffff166000808a815260200190815260200160002060000160009054906101000a900473ffffffffffffffffffffffffffffffffffffffff1673ffffffffffffffffffffffffffffffffffffffff16146109af576040517f08c379a00000000000000000000000000000000000000000000000000000000081526004016109a69061235a565b60405180910390fd5b8383600360008b815260200190815260200160002060008a815260200190815260200160002091906109e292919061146b565b50604051806080016040528060011515815260200183838080601f016020809104026020016040519081016040528093929190818152602001838380828437600081840152601f19601f82011690508083019250505050505050815260200187815260200186815250600260008a8152602001908152602001600020600089815260200190815260200160002060008201518160000160006101000a81548160ff0219169083151502179055506020820151816001019080519060200190610aab9291906114f1565b50604082015181600201556060820151816003015590505086887fca0f06ecdb8cf15a2169adfbe9b701a7ec852be74babd2dfb5fbcc8cd3276f9a888886868a8a604051610afe9695949392919061237a565b60405180910390a35050505050505050565b600073ffffffffffffffffffffffffffffffffffffffff1660008086815260200190815260200160002060000160009054906101000a900473ffffffffffffffffffffffffffffffffffffffff1673ffffffffffffffffffffffffffffffffffffffff1603610bb4576040517f08c379a0000000000000000000000000000000000000000000000000000000008152600401610bab90611e05565b60405180910390fd5b60008060008681526020019081526020016000206040518060800160405290816000820160009054906101000a900473ffffffffffffffffffffffffffffffffffffffff1673ffffffffffffffffffffffffffffffffffffffff1673ffffffffffffffffffffffffffffffffffffffff168152602001600182018054610c3990611ee6565b80601f0160208091040260200160405190810160405280929190818152602001828054610c6590611ee6565b8015610cb25780601f10610c8757610100808354040283529160200191610cb2565b820191906000526020600020905b815481529060010190602001808311610c9557829003601f168201915b50505050508152602001600282018054610ccb90611ee6565b80601f0160208091040260200160405190810160405280929190818152602001828054610cf790611ee6565b8015610d445780601f10610d1957610100808354040283529160200191610d44565b820191906000526020600020905b815481529060010190602001808311610d2757829003601f168201915b5050505050815260200160038201548152505090506000610da686868680806020026020016040519081016040528093929190818152602001838360200280828437600081840152601f19601f82011690508083019250505050505050610ec6565b90508060046000846000015173ffffffffffffffffffffffffffffffffffffffff1673ffffffffffffffffffffffffffffffffffffffff16815260200190815260200160002060003373ffffffffffffffffffffffffffffffffffffffff1673ffffffffffffffffffffffffffffffffffffffff16815260200190815260200160002060008581526020019081526020016000206000828254610e499190611f46565b9250508190555082826000015173ffffffffffffffffffffffffffffffffffffffff163373ffffffffffffffffffffffffffffffffffffffff167fe52added844a6489c27a47ef615a3af3c44bbb20d38d5f7ab4e4bc45e4bb2795888886604051610eb693929190612443565b60405180910390a4505050505050565b6000806000808581526020019081526020016000206040518060800160405290816000820160009054906101000a900473ffffffffffffffffffffffffffffffffffffffff1673ffffffffffffffffffffffffffffffffffffffff1673ffffffffffffffffffffffffffffffffffffffff168152602001600182018054610f4c90611ee6565b80601f0160208091040260200160405190810160405280929190818152602001828054610f7890611ee6565b8015610fc55780601f10610f9a57610100808354040283529160200191610fc5565b820191906000526020600020905b815481529060010190602001808311610fa857829003601f168201915b50505050508152602001600282018054610fde90611ee6565b80601f016020809104026020016040519081016040528092919081815260200182805461100a90611ee6565b80156110575780601f1061102c57610100808354040283529160200191611057565b820191906000526020600020905b81548152906001019060200180831161103a57829003601f168201915b5050505050815260200160038201548152505090506000805b8451811015611128576002600087815260200190815260200160002060008683815181106110a1576110a0612475565b5b60200260200101518152602001908152602001600020600201546002600088815260200190815260200160002060008784815181106110e3576110e2612475565b5b60200260200101518152602001908152602001600020600301546111079190611f46565b8261111291906124a4565b915060018161112191906124a4565b9050611070565b50600082606001516305265c00836111409190611fa9565b61114a9190611fda565b905080935050505092915050565b61116186611441565b156111a1576040517f08c379a000000000000000000000000000000000000000000000000000000000815260040161119890612546565b60405180910390fd5b60405180608001604052803373ffffffffffffffffffffffffffffffffffffffff16815260200186868080601f016020809104026020016040519081016040528093929190818152602001838380828437600081840152601f19601f82011690508083019250505050505050815260200184848080601f016020809104026020016040519081016040528093929190818152602001838380828437600081840152601f19601f8201169050808301925050505050505081526020018281525060008088815260200190815260200160002060008201518160000160006101000a81548173ffffffffffffffffffffffffffffffffffffffff021916908373ffffffffffffffffffffffffffffffffffffffff16021790555060208201518160010190805190602001906112d59291906114f1565b5060408201518160020190805190602001906112f29291906114f1565b5060608201518160030155905050600180600088815260200190815260200160002060006101000a81548160ff021916908315150217905550853373ffffffffffffffffffffffffffffffffffffffff167f59b22e4733b4344b2828d599cd33cc61b78309d40cc66055b4b86ea31a38a253878787878760405161137a959493929190612566565b60405180910390a3505050505050565b606060036000848152602001908152602001600020600083815260200190815260200160002080546113bb90611ee6565b80601f01602080910402602001604051908101604052809291908181526020018280546113e790611ee6565b80156114345780601f1061140957610100808354040283529160200191611434565b820191906000526020600020905b81548152906001019060200180831161141757829003601f168201915b5050505050905092915050565b60006001600083815260200190815260200160002060009054906101000a900460ff169050919050565b82805461147790611ee6565b90600052602060002090601f01602090048101928261149957600085556114e0565b82601f106114b257803560ff19168380011785556114e0565b828001600101855582156114e0579182015b828111156114df5782358255916020019190600101906114c4565b5b5090506114ed9190611577565b5090565b8280546114fd90611ee6565b90600052602060002090601f01602090048101928261151f5760008555611566565b82601f1061153857805160ff1916838001178555611566565b82800160010185558215611566579182015b8281111561156557825182559160200191906001019061154a565b5b5090506115739190611577565b5090565b5b80821115611590576000816000905550600101611578565b5090565b6000604051905090565b600080fd5b600080fd5b6000819050919050565b6115bb816115a8565b81146115c657600080fd5b50565b6000813590506115d8816115b2565b92915050565b6000819050919050565b6115f1816115de565b81146115fc57600080fd5b50565b60008135905061160e816115e8565b92915050565b600080fd5b600080fd5b600080fd5b60008083601f84011261163957611638611614565b5b8235905067ffffffffffffffff81111561165657611655611619565b5b6020830191508360018202830111156116725761167161161e565b5b9250929050565b6000806000806000608086880312156116955761169461159e565b5b60006116a3888289016115c9565b95505060206116b4888289016115ff565b94505060406116c5888289016115ff565b935050606086013567ffffffffffffffff8111156116e6576116e56115a3565b5b6116f288828901611623565b92509250509295509295909350565b61170a816115a8565b82525050565b60006020820190506117256000830184611701565b92915050565b600080600080606085870312156117455761174461159e565b5b6000611753878288016115c9565b9450506020611764878288016115c9565b935050604085013567ffffffffffffffff811115611785576117846115a3565b5b61179187828801611623565b925092505092959194509250565b6000602082840312156117b5576117b461159e565b5b60006117c3848285016115c9565b91505092915050565b60008115159050919050565b6117e1816117cc565b82525050565b60006020820190506117fc60008301846117d8565b92915050565b600080604083850312156118195761181861159e565b5b6000611827858286016115c9565b9250506020611838858286016115c9565b9150509250929050565b600081519050919050565b600082825260208201905092915050565b60005b8381101561187c578082015181840152602081019050611861565b8381111561188b576000848401525b50505050565b6000601f19601f8301169050919050565b60006118ad82611842565b6118b7818561184d565b93506118c781856020860161185e565b6118d081611891565b840191505092915050565b600060208201905081810360008301526118f581846118a2565b905092915050565b60008060008060008060008060c0898b03121561191d5761191c61159e565b5b600061192b8b828c016115c9565b985050602061193c8b828c016115c9565b975050604061194d8b828c016115ff565b965050606061195e8b828c016115ff565b955050608089013567ffffffffffffffff81111561197f5761197e6115a3565b5b61198b8b828c01611623565b945094505060a089013567ffffffffffffffff8111156119ae576119ad6115a3565b5b6119ba8b828c01611623565b92509250509295985092959890939650565b60008083601f8401126119e2576119e1611614565b5b8235905067ffffffffffffffff8111156119ff576119fe611619565b5b602083019150836020820283011115611a1b57611a1a61161e565b5b9250929050565b60008060008060608587031215611a3c57611a3b61159e565b5b6000611a4a878288016115c9565b945050602085013567ffffffffffffffff811115611a6b57611a6a6115a3565b5b611a77878288016119cc565b93509350506040611a8a878288016115c9565b91505092959194509250565b7f4e487b7100000000000000000000000000000000000000000000000000000000600052604160045260246000fd5b611ace82611891565b810181811067ffffffffffffffff82111715611aed57611aec611a96565b5b80604052505050565b6000611b00611594565b9050611b0c8282611ac5565b919050565b600067ffffffffffffffff821115611b2c57611b2b611a96565b5b602082029050602081019050919050565b6000611b50611b4b84611b11565b611af6565b90508083825260208201905060208402830185811115611b7357611b7261161e565b5b835b81811015611b9c5780611b8888826115c9565b845260208401935050602081019050611b75565b5050509392505050565b600082601f830112611bbb57611bba611614565b5b8135611bcb848260208601611b3d565b91505092915050565b60008060408385031215611beb57611bea61159e565b5b6000611bf9858286016115c9565b925050602083013567ffffffffffffffff811115611c1a57611c196115a3565b5b611c2685828601611ba6565b9150509250929050565b611c39816115de565b82525050565b6000602082019050611c546000830184611c30565b92915050565b60008060008060008060808789031215611c7757611c7661159e565b5b6000611c8589828a016115c9565b965050602087013567ffffffffffffffff811115611ca657611ca56115a3565b5b611cb289828a01611623565b9550955050604087013567ffffffffffffffff811115611cd557611cd46115a3565b5b611ce189828a01611623565b93509350506060611cf489828a016115ff565b9150509295509295509295565b7f5075627375623a2063616e206e6f742073756273637269626520746f20796f7560008201527f72206f776e206465766963650000000000000000000000000000000000000000602082015250565b6000611d5d602c8361184d565b9150611d6882611d01565b604082019050919050565b60006020820190508181036000830152611d8c81611d50565b9050919050565b7f5075627375623a20646576696365206973206e6f74207265676973746572656460008201527f2079657400000000000000000000000000000000000000000000000000000000602082015250565b6000611def60248361184d565b9150611dfa82611d93565b604082019050919050565b60006020820190508181036000830152611e1e81611de2565b9050919050565b7f5075627375623a20656e642074696d65206d756368206c61726765722074686160008201527f6e20626567696e2074696d650000000000000000000000000000000000000000602082015250565b6000611e81602c8361184d565b9150611e8c82611e25565b604082019050919050565b60006020820190508181036000830152611eb081611e74565b9050919050565b7f4e487b7100000000000000000000000000000000000000000000000000000000600052602260045260246000fd5b60006002820490506001821680611efe57607f821691505b602082108103611f1157611f10611eb7565b5b50919050565b7f4e487b7100000000000000000000000000000000000000000000000000000000600052601160045260246000fd5b6000611f51826115de565b9150611f5c836115de565b925082821015611f6f57611f6e611f17565b5b828203905092915050565b7f4e487b7100000000000000000000000000000000000000000000000000000000600052601260045260246000fd5b6000611fb4826115de565b9150611fbf836115de565b925082611fcf57611fce611f7a565b5b828204905092915050565b6000611fe5826115de565b9150611ff0836115de565b9250817fffffffffffffffffffffffffffffffffffffffffffffffffffffffffffffffff048311821515161561202957612028611f17565b5b828202905092915050565b7f416d6f756e742069732073756666696369656e74000000000000000000000000600082015250565b600061206a60148361184d565b915061207582612034565b602082019050919050565b600060208201905081810360008301526120998161205d565b9050919050565b600073ffffffffffffffffffffffffffffffffffffffff82169050919050565b60006120cb826120a0565b9050919050565b60008160601b9050919050565b60006120ea826120d2565b9050919050565b60006120fc826120df565b9050919050565b61211461210f826120c0565b6120f1565b82525050565b6000819050919050565b612135612130826115de565b61211a565b82525050565b60006121478286612103565b6014820191506121578285612103565b6014820191506121678284612124565b602082019150819050949350505050565b82818337600083830152505050565b6000612193838561184d565b93506121a0838584612178565b6121a983611891565b840190509392505050565b600060a0820190506121c96000830189611701565b6121d66020830188611c30565b6121e36040830187611c30565b6121f06060830186611c30565b8181036080830152612203818486612187565b9050979650505050505050565b7f5075627375623a20596f7520617265206e6f7420746865206f776e6572000000600082015250565b6000612246601d8361184d565b915061225182612210565b602082019050919050565b6000602082019050818103600083015261227581612239565b9050919050565b7f5075627375623a2044617461206964206973206e6f7420636f72726563740000600082015250565b60006122b2601e8361184d565b91506122bd8261227c565b602082019050919050565b600060208201905081810360008301526122e1816122a5565b9050919050565b7f5075625375623a20596f7520617265206e6f7420746865206f776e6572206f6660008201527f2074686973206465766963650000000000000000000000000000000000000000602082015250565b6000612344602c8361184d565b915061234f826122e8565b604082019050919050565b6000602082019050818103600083015261237381612337565b9050919050565b600060808201905061238f6000830189611c30565b61239c6020830188611c30565b81810360408301526123af818688612187565b905081810360608301526123c4818486612187565b9050979650505050505050565b600082825260208201905092915050565b600080fd5b60006123f383856123d1565b93507f07ffffffffffffffffffffffffffffffffffffffffffffffffffffffffffffff831115612426576124256123e2565b5b602083029250612437838584612178565b82840190509392505050565b6000604082019050818103600083015261245e8185876123e7565b905061246d6020830184611c30565b949350505050565b7f4e487b7100000000000000000000000000000000000000000000000000000000600052603260045260246000fd5b60006124af826115de565b91506124ba836115de565b9250827fffffffffffffffffffffffffffffffffffffffffffffffffffffffffffffffff038211156124ef576124ee611f17565b5b828201905092915050565b7f5075625375623a2049642068617665206265656e207573656400000000000000600082015250565b600061253060198361184d565b915061253b826124fa565b602082019050919050565b6000602082019050818103600083015261255f81612523565b9050919050565b60006060820190508181036000830152612581818789612187565b90508181036020830152612596818587612187565b90506125a56040830184611c30565b969550505050505056fea2646970667358221220dfc4bb7521b83e6c5761ed78d423b00b4960d29faefab957a122219f1e02369264736f6c634300080d0033",
  "immutableReferences": {},
  "source": "// SPDX-License-Identifier: MIT\r\npragma solidity ^0.8.0;\r\n\r\ncontract PubSub {\r\n    uint256 private constant SECADAY = 86400000;\r\n    mapping(bytes32 => Devices) userDevices; // deviceID to device\r\n    mapping(bytes32 => bool) public usedId; // deviceID to bool\r\n    mapping(bytes32 => mapping(bytes32 => SensorData)) devicesData; // from deviceID to dataID\r\n    mapping(bytes32 =>  mapping(bytes32 => string)) rek; // from deviceID to dataID to  rek\r\n    // mapping (address => mapping(address => uint256 [] )) transaction; //from DO to DU to arr of fee\r\n    mapping(address => mapping(address => mapping ( bytes32 => uint256))) transactionList; // from DO to DU to transactionID to amount\r\n    struct Devices {\r\n        address owner;\r\n        string name;\r\n        string decribe;\r\n        uint256 pricePerDay;\r\n    }\r\n\r\n    struct SensorData {\r\n        bool isUsed;\r\n        string uri;\r\n        uint256 from;\r\n        uint256 to;\r\n    }\r\n\r\n    event Register(\r\n        address indexed owner,\r\n        bytes32 indexed id,\r\n        string deviceName,\r\n        string _decribe,\r\n        uint256 price\r\n    );\r\n    event Subscribe(\r\n        address indexed from,\r\n        address indexed to,\r\n        bytes32 indexed deviceID,\r\n        bytes32 txID,\r\n        uint256 start,\r\n        uint256 end,\r\n        uint256 price,\r\n        string pk\r\n    );\r\n\r\n    event BuyPackage(\r\n        address indexed from,\r\n        address indexed to,\r\n        bytes32 indexed deviceID,\r\n        uint256 txID,\r\n        bytes32 [] dataID, \r\n        uint256 price,\r\n        string pk\r\n    );\r\n\r\n    event NewData(\r\n        bytes32 indexed deviceID,\r\n        bytes32 indexed dataID,\r\n        uint256 _from,\r\n        uint256 _to,\r\n        string _dataUri,\r\n        string _keyUri\r\n    );\r\n    event NewKey(bytes32 keyID, string uri);\r\n\r\n    event Confirm(address indexed from, address indexed to, bytes32[] dataID, uint256 amount, bytes32 indexed txId);\r\n\r\n    fallback() external payable {}\r\n\r\n    function register(\r\n        bytes32 deviceID,\r\n        string calldata deviceName,\r\n        string calldata _decribe,\r\n        uint256 pricePerDay\r\n    ) external {\r\n        require(!isUsed(deviceID), \"PubSub: Id have been used\");\r\n        userDevices[deviceID] = Devices(msg.sender,deviceName, _decribe, pricePerDay);\r\n        usedId[deviceID] = true;\r\n        emit Register(msg.sender, deviceID,deviceName, _decribe, pricePerDay);\r\n    }\r\n\r\n    function isUsed(bytes32 id) public view returns (bool used) {\r\n        used = usedId[id];\r\n    }\r\n\r\n    function publish(\r\n        bytes32 deviceID,\r\n        bytes32 dataID,\r\n        uint256 _from,\r\n        uint256 _to,\r\n        string calldata keyUri,\r\n        string calldata dataUri\r\n    ) external {\r\n        require(userDevices[deviceID].owner == msg.sender,\"PubSub: You are not the owner of this device\");\r\n        rek[deviceID][dataID] = keyUri;\r\n        devicesData[deviceID][dataID] = SensorData(true,dataUri, _from, _to);\r\n        emit NewData(deviceID, dataID, _from, _to, dataUri,keyUri);\r\n    }\r\n\r\n    function updateKey(\r\n        bytes32 deviceID,\r\n        bytes32 dataID,\r\n        string calldata keyUri\r\n    ) public {\r\n        require(userDevices[deviceID].owner == msg.sender,\"Pubsub: You are not the owner\");\r\n        require(devicesData[deviceID][dataID].isUsed == true,\"Pubsub: Data id is not correct\");\r\n        rek[deviceID][dataID] = keyUri;\r\n    }\r\n\r\n    function subscribe(\r\n        bytes32 deviceID,\r\n        uint256 _from,\r\n        uint256 _to,\r\n        string calldata _pubKey\r\n    ) external payable returns (bytes32)  {\r\n        require(_from != _to, \"Pubsub: can not subscribe to your own device\");\r\n        require(userDevices[deviceID].owner != address(0x0),\"Pubsub: device is not registered yet\");\r\n        require(_from < _to,\"Pubsub: end time much larger than begin time\");\r\n        Devices memory device = userDevices[deviceID];\r\n        uint256 price = ((_to - _from) / SECADAY) * device.pricePerDay;\r\n        require(msg.value >= price, \"Amount is sufficient\");\r\n\r\n        bytes32 txId = keccak256(abi.encodePacked(msg.sender, device.owner, block.timestamp));\r\n        \r\n        payable(this).transfer(price);\r\n        emit Subscribe(\r\n            msg.sender,\r\n            device.owner,\r\n            deviceID,\r\n            txId,\r\n            _from,\r\n            _to,\r\n            price,\r\n            _pubKey\r\n        );\r\n        return txId;\r\n    }\r\n\r\n    function calPackagePrice (bytes32 deviceID, bytes32[] memory dataID) public view returns(uint256){\r\n        Devices memory device = userDevices[deviceID];\r\n        uint256 duration = 0;\r\n        for(uint256 i; i< dataID.length; i=i+1){\r\n            duration += devicesData[deviceID][dataID[i]].to - devicesData[deviceID][dataID[i]].from;\r\n        }\r\n        uint256 price  = duration / SECADAY * device.pricePerDay;\r\n        return price;\r\n    }\r\n\r\n    function confirm (bytes32 deviceID, bytes32[] calldata dataID, bytes32 txId) external{\r\n        require(userDevices[deviceID].owner != address(0x0),\"Pubsub: device is not registered yet\");\r\n        Devices memory device = userDevices[deviceID];\r\n        uint256 totalprice = calPackagePrice(deviceID,dataID);\r\n        transactionList[device.owner][msg.sender][txId] -= totalprice;\r\n        emit  Confirm( msg.sender, device.owner, dataID, totalprice, txId);\r\n    }\r\n\r\n    function getData(bytes32 dataID, bytes32 deviceID)\r\n        external\r\n        view\r\n        returns (string memory)\r\n    {\r\n        return devicesData[deviceID][dataID].uri;\r\n    }\r\n\r\n    function getRek( bytes32 deviceID, bytes32 dataID) external view returns (string memory) {\r\n        return rek[deviceID][dataID];\r\n    }\r\n}\r\n",
  "sourcePath": "E:\\GitHub\\Implement-pub-sub-in-blockchain\\contracts\\PubSub.sol",
  "compiler": {
    "name": "solc",
    "version": "0.8.13+commit.abaa5c0e.Emscripten.clang"
  },
  "schemaVersion": "3.4.7",
  "updatedAt": "2022-05-05T07:31:22.080Z",
  "networkType": "ethereum",
  "devdoc": {
    "kind": "dev",
    "methods": {},
    "version": 1
  },
  "userdoc": {
    "kind": "user",
    "methods": {},
    "version": 1
  }
}