{
  "contractName": "PubSub",
  "abi": [
    {
      "anonymous": false,
      "inputs": [
        {
          "indexed": true,
          "internalType": "address",
          "name": "from",
          "type": "address"
        },
        {
          "indexed": true,
          "internalType": "address",
          "name": "to",
          "type": "address"
        },
        {
          "indexed": true,
          "internalType": "bytes32",
          "name": "deviceID",
          "type": "bytes32"
        },
        {
          "indexed": false,
          "internalType": "uint256",
          "name": "txID",
          "type": "uint256"
        },
        {
          "indexed": false,
          "internalType": "bytes32[]",
          "name": "dataID",
          "type": "bytes32[]"
        },
        {
          "indexed": false,
          "internalType": "uint256",
          "name": "price",
          "type": "uint256"
        },
        {
          "indexed": false,
          "internalType": "string",
          "name": "pk",
          "type": "string"
        }
      ],
      "name": "BuyPackage",
      "type": "event"
    },
    {
      "anonymous": false,
      "inputs": [
        {
          "indexed": true,
          "internalType": "address",
          "name": "from",
          "type": "address"
        },
        {
          "indexed": true,
          "internalType": "address",
          "name": "to",
          "type": "address"
        },
        {
          "indexed": false,
          "internalType": "bytes32[]",
          "name": "dataID",
          "type": "bytes32[]"
        },
        {
          "indexed": false,
          "internalType": "uint256",
          "name": "amount",
          "type": "uint256"
        },
        {
          "indexed": true,
          "internalType": "bytes32",
          "name": "txId",
          "type": "bytes32"
        }
      ],
      "name": "Confirm",
      "type": "event"
    },
    {
      "anonymous": false,
      "inputs": [
        {
          "indexed": true,
          "internalType": "bytes32",
          "name": "deviceID",
          "type": "bytes32"
        },
        {
          "indexed": true,
          "internalType": "bytes32",
          "name": "dataID",
          "type": "bytes32"
        },
        {
          "indexed": false,
          "internalType": "uint256",
          "name": "_from",
          "type": "uint256"
        },
        {
          "indexed": false,
          "internalType": "uint256",
          "name": "_to",
          "type": "uint256"
        },
        {
          "indexed": false,
          "internalType": "string",
          "name": "_dataUri",
          "type": "string"
        },
        {
          "indexed": false,
          "internalType": "string",
          "name": "_keyUri",
          "type": "string"
        }
      ],
      "name": "NewData",
      "type": "event"
    },
    {
      "anonymous": false,
      "inputs": [
        {
          "indexed": false,
          "internalType": "bytes32",
          "name": "keyID",
          "type": "bytes32"
        },
        {
          "indexed": false,
          "internalType": "string",
          "name": "uri",
          "type": "string"
        }
      ],
      "name": "NewKey",
      "type": "event"
    },
    {
      "anonymous": false,
      "inputs": [
        {
          "indexed": true,
          "internalType": "address",
          "name": "owner",
          "type": "address"
        },
        {
          "indexed": true,
          "internalType": "bytes32",
          "name": "id",
          "type": "bytes32"
        },
        {
          "indexed": false,
          "internalType": "string",
          "name": "deviceName",
          "type": "string"
        },
        {
          "indexed": false,
          "internalType": "string",
          "name": "_decribe",
          "type": "string"
        },
        {
          "indexed": false,
          "internalType": "uint256",
          "name": "price",
          "type": "uint256"
        }
      ],
      "name": "Register",
      "type": "event"
    },
    {
      "anonymous": false,
      "inputs": [
        {
          "indexed": true,
          "internalType": "address",
          "name": "from",
          "type": "address"
        },
        {
          "indexed": true,
          "internalType": "address",
          "name": "to",
          "type": "address"
        },
        {
          "indexed": true,
          "internalType": "bytes32",
          "name": "deviceID",
          "type": "bytes32"
        },
        {
          "indexed": false,
          "internalType": "bytes32",
          "name": "txID",
          "type": "bytes32"
        },
        {
          "indexed": false,
          "internalType": "uint256",
          "name": "start",
          "type": "uint256"
        },
        {
          "indexed": false,
          "internalType": "uint256",
          "name": "end",
          "type": "uint256"
        },
        {
          "indexed": false,
          "internalType": "uint256",
          "name": "price",
          "type": "uint256"
        },
        {
          "indexed": false,
          "internalType": "string",
          "name": "pk",
          "type": "string"
        }
      ],
      "name": "Subscribe",
      "type": "event"
    },
    {
      "stateMutability": "payable",
      "type": "fallback",
      "payable": true
    },
    {
      "inputs": [
        {
          "internalType": "bytes32",
          "name": "",
          "type": "bytes32"
        }
      ],
      "name": "usedId",
      "outputs": [
        {
          "internalType": "bool",
          "name": "",
          "type": "bool"
        }
      ],
      "stateMutability": "view",
      "type": "function",
      "constant": true
    },
    {
      "inputs": [
        {
          "internalType": "bytes32",
          "name": "deviceID",
          "type": "bytes32"
        },
        {
          "internalType": "string",
          "name": "deviceName",
          "type": "string"
        },
        {
          "internalType": "string",
          "name": "_decribe",
          "type": "string"
        },
        {
          "internalType": "uint256",
          "name": "pricePerDay",
          "type": "uint256"
        }
      ],
      "name": "register",
      "outputs": [],
      "stateMutability": "nonpayable",
      "type": "function"
    },
    {
      "inputs": [
        {
          "internalType": "bytes32",
          "name": "id",
          "type": "bytes32"
        }
      ],
      "name": "isUsed",
      "outputs": [
        {
          "internalType": "bool",
          "name": "used",
          "type": "bool"
        }
      ],
      "stateMutability": "view",
      "type": "function",
      "constant": true
    },
    {
      "inputs": [
        {
          "internalType": "bytes32",
          "name": "deviceID",
          "type": "bytes32"
        },
        {
          "internalType": "bytes32",
          "name": "dataID",
          "type": "bytes32"
        },
        {
          "internalType": "uint256",
          "name": "_from",
          "type": "uint256"
        },
        {
          "internalType": "uint256",
          "name": "_to",
          "type": "uint256"
        },
        {
          "internalType": "string",
          "name": "keyUri",
          "type": "string"
        },
        {
          "internalType": "string",
          "name": "dataUri",
          "type": "string"
        }
      ],
      "name": "publish",
      "outputs": [],
      "stateMutability": "nonpayable",
      "type": "function"
    },
    {
      "inputs": [
        {
          "internalType": "bytes32",
          "name": "deviceID",
          "type": "bytes32"
        },
        {
          "internalType": "bytes32",
          "name": "dataID",
          "type": "bytes32"
        },
        {
          "internalType": "string",
          "name": "keyUri",
          "type": "string"
        }
      ],
      "name": "updateKey",
      "outputs": [],
      "stateMutability": "nonpayable",
      "type": "function"
    },
    {
      "inputs": [
        {
          "internalType": "bytes32",
          "name": "deviceID",
          "type": "bytes32"
        },
        {
          "internalType": "uint256",
          "name": "_from",
          "type": "uint256"
        },
        {
          "internalType": "uint256",
          "name": "_to",
          "type": "uint256"
        },
        {
          "internalType": "string",
          "name": "_pubKey",
          "type": "string"
        }
      ],
      "name": "subscribe",
      "outputs": [
        {
          "internalType": "bytes32",
          "name": "",
          "type": "bytes32"
        }
      ],
      "stateMutability": "payable",
      "type": "function",
      "payable": true
    },
    {
      "inputs": [
        {
          "internalType": "bytes32",
          "name": "deviceID",
          "type": "bytes32"
        },
        {
          "internalType": "bytes32[]",
          "name": "dataID",
          "type": "bytes32[]"
        }
      ],
      "name": "calPackagePrice",
      "outputs": [
        {
          "internalType": "uint256",
          "name": "",
          "type": "uint256"
        }
      ],
      "stateMutability": "view",
      "type": "function",
      "constant": true
    },
    {
      "inputs": [
        {
          "internalType": "bytes32",
          "name": "deviceID",
          "type": "bytes32"
        },
        {
          "internalType": "bytes32[]",
          "name": "dataID",
          "type": "bytes32[]"
        },
        {
          "internalType": "bytes32",
          "name": "txId",
          "type": "bytes32"
        }
      ],
      "name": "confirm",
      "outputs": [],
      "stateMutability": "nonpayable",
      "type": "function"
    },
    {
      "inputs": [
        {
          "internalType": "bytes32",
          "name": "dataID",
          "type": "bytes32"
        },
        {
          "internalType": "bytes32",
          "name": "deviceID",
          "type": "bytes32"
        }
      ],
      "name": "getData",
      "outputs": [
        {
          "internalType": "string",
          "name": "",
          "type": "string"
        }
      ],
      "stateMutability": "view",
      "type": "function",
      "constant": true
    },
    {
      "inputs": [
        {
          "internalType": "bytes32",
          "name": "deviceID",
          "type": "bytes32"
        },
        {
          "internalType": "bytes32",
          "name": "dataID",
          "type": "bytes32"
        }
      ],
      "name": "getRek",
      "outputs": [
        {
          "internalType": "string",
          "name": "",
          "type": "string"
        }
      ],
      "stateMutability": "view",
      "type": "function",
      "constant": true
    }
  ],
  "bytecode": "0x608060405234801561001057600080fd5b5061250e806100206000396000f3fe6080604052600436106100955760003560e01c80637e35c973116100595780637e35c97314610194578063a2c7e8b7146101bd578063b6e24aa1146101fa578063fb25b47c14610223578063fe255a181461026057610096565b806302c7a71b14610098578063139953bd146100c85780632e455f89146100f157806338609dea1461012e578063412034c31461016b57610096565b5b005b6100b260048036038101906100ad9190611634565b61029d565b6040516100bf91906116cb565b60405180910390f35b3480156100d457600080fd5b506100ef60048036038101906100ea91906116e6565b610696565b005b3480156100fd57600080fd5b506101186004803603810190610113919061175a565b6107ee565b60405161012591906117a2565b60405180910390f35b34801561013a57600080fd5b50610155600480360381019061015091906117bd565b61080e565b6040516101629190611896565b60405180910390f35b34801561017757600080fd5b50610192600480360381019061018d91906118b8565b6108c8565b005b3480156101a057600080fd5b506101bb60048036038101906101b691906119dd565b610acc565b005b3480156101c957600080fd5b506101e460048036038101906101df9190611b8f565b610e82565b6040516101f19190611bfa565b60405180910390f35b34801561020657600080fd5b50610221600480360381019061021c9190611c15565b611113565b005b34801561022f57600080fd5b5061024a600480360381019061024591906117bd565b611345565b6040516102579190611896565b60405180910390f35b34801561026c57600080fd5b506102876004803603810190610282919061175a565b6113fc565b60405161029491906117a2565b60405180910390f35b60008073ffffffffffffffffffffffffffffffffffffffff1660008088815260200190815260200160002060000160009054906101000a900473ffffffffffffffffffffffffffffffffffffffff1673ffffffffffffffffffffffffffffffffffffffff1603610342576040517f08c379a000000000000000000000000000000000000000000000000000000000815260040161033990611d2e565b60405180910390fd5b838510610384576040517f08c379a000000000000000000000000000000000000000000000000000000000815260040161037b90611dc0565b60405180910390fd5b60008060008881526020019081526020016000206040518060800160405290816000820160009054906101000a900473ffffffffffffffffffffffffffffffffffffffff1673ffffffffffffffffffffffffffffffffffffffff1673ffffffffffffffffffffffffffffffffffffffff16815260200160018201805461040990611e0f565b80601f016020809104026020016040519081016040528092919081815260200182805461043590611e0f565b80156104825780601f1061045757610100808354040283529160200191610482565b820191906000526020600020905b81548152906001019060200180831161046557829003601f168201915b5050505050815260200160028201805461049b90611e0f565b80601f01602080910402602001604051908101604052809291908181526020018280546104c790611e0f565b80156105145780601f106104e957610100808354040283529160200191610514565b820191906000526020600020905b8154815290600101906020018083116104f757829003601f168201915b505050505081526020016003820154815250509050600081606001516201518087896105409190611e6f565b61054a9190611ed2565b6105549190611f03565b905080341015610599576040517f08c379a000000000000000000000000000000000000000000000000000000000815260040161059090611fa9565b60405180910390fd5b6000338360000151426040516020016105b493929190612064565b6040516020818303038152906040528051906020012090503073ffffffffffffffffffffffffffffffffffffffff166108fc839081150290604051600060405180830381858888f19350505050158015610612573d6000803e3d6000fd5b5088836000015173ffffffffffffffffffffffffffffffffffffffff163373ffffffffffffffffffffffffffffffffffffffff167fd24618657c44b9c39dcd93cc9d2f20ccc8f2b080ae4e0e8d8002f547b1753622848c8c888d8d60405161067f969594939291906120dd565b60405180910390a480935050505095945050505050565b3373ffffffffffffffffffffffffffffffffffffffff1660008086815260200190815260200160002060000160009054906101000a900473ffffffffffffffffffffffffffffffffffffffff1673ffffffffffffffffffffffffffffffffffffffff1614610739576040517f08c379a000000000000000000000000000000000000000000000000000000000815260040161073090612185565b60405180910390fd5b6001151560026000868152602001908152602001600020600085815260200190815260200160002060000160009054906101000a900460ff161515146107b4576040517f08c379a00000000000000000000000000000000000000000000000000000000081526004016107ab906121f1565b60405180910390fd5b818160036000878152602001908152602001600020600086815260200190815260200160002091906107e7929190611426565b5050505050565b60016020528060005260406000206000915054906101000a900460ff1681565b6060600260008381526020019081526020016000206000848152602001908152602001600020600101805461084290611e0f565b80601f016020809104026020016040519081016040528092919081815260200182805461086e90611e0f565b80156108bb5780601f10610890576101008083540402835291602001916108bb565b820191906000526020600020905b81548152906001019060200180831161089e57829003601f168201915b5050505050905092915050565b3373ffffffffffffffffffffffffffffffffffffffff166000808a815260200190815260200160002060000160009054906101000a900473ffffffffffffffffffffffffffffffffffffffff1673ffffffffffffffffffffffffffffffffffffffff161461096b576040517f08c379a000000000000000000000000000000000000000000000000000000000815260040161096290612283565b60405180910390fd5b8383600360008b815260200190815260200160002060008a8152602001908152602001600020919061099e929190611426565b50604051806080016040528060011515815260200183838080601f016020809104026020016040519081016040528093929190818152602001838380828437600081840152601f19601f82011690508083019250505050505050815260200187815260200186815250600260008a8152602001908152602001600020600089815260200190815260200160002060008201518160000160006101000a81548160ff0219169083151502179055506020820151816001019080519060200190610a679291906114ac565b50604082015181600201556060820151816003015590505086887fca0f06ecdb8cf15a2169adfbe9b701a7ec852be74babd2dfb5fbcc8cd3276f9a888886868a8a604051610aba969594939291906122a3565b60405180910390a35050505050505050565b600073ffffffffffffffffffffffffffffffffffffffff1660008086815260200190815260200160002060000160009054906101000a900473ffffffffffffffffffffffffffffffffffffffff1673ffffffffffffffffffffffffffffffffffffffff1603610b70576040517f08c379a0000000000000000000000000000000000000000000000000000000008152600401610b6790611d2e565b60405180910390fd5b60008060008681526020019081526020016000206040518060800160405290816000820160009054906101000a900473ffffffffffffffffffffffffffffffffffffffff1673ffffffffffffffffffffffffffffffffffffffff1673ffffffffffffffffffffffffffffffffffffffff168152602001600182018054610bf590611e0f565b80601f0160208091040260200160405190810160405280929190818152602001828054610c2190611e0f565b8015610c6e5780601f10610c4357610100808354040283529160200191610c6e565b820191906000526020600020905b815481529060010190602001808311610c5157829003601f168201915b50505050508152602001600282018054610c8790611e0f565b80601f0160208091040260200160405190810160405280929190818152602001828054610cb390611e0f565b8015610d005780601f10610cd557610100808354040283529160200191610d00565b820191906000526020600020905b815481529060010190602001808311610ce357829003601f168201915b5050505050815260200160038201548152505090506000610d6286868680806020026020016040519081016040528093929190818152602001838360200280828437600081840152601f19601f82011690508083019250505050505050610e82565b90508060046000846000015173ffffffffffffffffffffffffffffffffffffffff1673ffffffffffffffffffffffffffffffffffffffff16815260200190815260200160002060003373ffffffffffffffffffffffffffffffffffffffff1673ffffffffffffffffffffffffffffffffffffffff16815260200190815260200160002060008581526020019081526020016000206000828254610e059190611e6f565b9250508190555082826000015173ffffffffffffffffffffffffffffffffffffffff163373ffffffffffffffffffffffffffffffffffffffff167fe52added844a6489c27a47ef615a3af3c44bbb20d38d5f7ab4e4bc45e4bb2795888886604051610e729392919061236c565b60405180910390a4505050505050565b6000806000808581526020019081526020016000206040518060800160405290816000820160009054906101000a900473ffffffffffffffffffffffffffffffffffffffff1673ffffffffffffffffffffffffffffffffffffffff1673ffffffffffffffffffffffffffffffffffffffff168152602001600182018054610f0890611e0f565b80601f0160208091040260200160405190810160405280929190818152602001828054610f3490611e0f565b8015610f815780601f10610f5657610100808354040283529160200191610f81565b820191906000526020600020905b815481529060010190602001808311610f6457829003601f168201915b50505050508152602001600282018054610f9a90611e0f565b80601f0160208091040260200160405190810160405280929190818152602001828054610fc690611e0f565b80156110135780601f10610fe857610100808354040283529160200191611013565b820191906000526020600020905b815481529060010190602001808311610ff657829003601f168201915b5050505050815260200160038201548152505090506000805b84518110156110e45760026000878152602001908152602001600020600086838151811061105d5761105c61239e565b5b602002602001015181526020019081526020016000206002015460026000888152602001908152602001600020600087848151811061109f5761109e61239e565b5b60200260200101518152602001908152602001600020600301546110c39190611e6f565b826110ce91906123cd565b91506001816110dd91906123cd565b905061102c565b506000826060015162015180836110fb9190611ed2565b6111059190611f03565b905080935050505092915050565b61111c866113fc565b1561115c576040517f08c379a00000000000000000000000000000000000000000000000000000000081526004016111539061246f565b60405180910390fd5b60405180608001604052803373ffffffffffffffffffffffffffffffffffffffff16815260200186868080601f016020809104026020016040519081016040528093929190818152602001838380828437600081840152601f19601f82011690508083019250505050505050815260200184848080601f016020809104026020016040519081016040528093929190818152602001838380828437600081840152601f19601f8201169050808301925050505050505081526020018281525060008088815260200190815260200160002060008201518160000160006101000a81548173ffffffffffffffffffffffffffffffffffffffff021916908373ffffffffffffffffffffffffffffffffffffffff16021790555060208201518160010190805190602001906112909291906114ac565b5060408201518160020190805190602001906112ad9291906114ac565b5060608201518160030155905050600180600088815260200190815260200160002060006101000a81548160ff021916908315150217905550853373ffffffffffffffffffffffffffffffffffffffff167f59b22e4733b4344b2828d599cd33cc61b78309d40cc66055b4b86ea31a38a253878787878760405161133595949392919061248f565b60405180910390a3505050505050565b6060600360008481526020019081526020016000206000838152602001908152602001600020805461137690611e0f565b80601f01602080910402602001604051908101604052809291908181526020018280546113a290611e0f565b80156113ef5780601f106113c4576101008083540402835291602001916113ef565b820191906000526020600020905b8154815290600101906020018083116113d257829003601f168201915b5050505050905092915050565b60006001600083815260200190815260200160002060009054906101000a900460ff169050919050565b82805461143290611e0f565b90600052602060002090601f016020900481019282611454576000855561149b565b82601f1061146d57803560ff191683800117855561149b565b8280016001018555821561149b579182015b8281111561149a57823582559160200191906001019061147f565b5b5090506114a89190611532565b5090565b8280546114b890611e0f565b90600052602060002090601f0160209004810192826114da5760008555611521565b82601f106114f357805160ff1916838001178555611521565b82800160010185558215611521579182015b82811115611520578251825591602001919060010190611505565b5b50905061152e9190611532565b5090565b5b8082111561154b576000816000905550600101611533565b5090565b6000604051905090565b600080fd5b600080fd5b6000819050919050565b61157681611563565b811461158157600080fd5b50565b6000813590506115938161156d565b92915050565b6000819050919050565b6115ac81611599565b81146115b757600080fd5b50565b6000813590506115c9816115a3565b92915050565b600080fd5b600080fd5b600080fd5b60008083601f8401126115f4576115f36115cf565b5b8235905067ffffffffffffffff811115611611576116106115d4565b5b60208301915083600182028301111561162d5761162c6115d9565b5b9250929050565b6000806000806000608086880312156116505761164f611559565b5b600061165e88828901611584565b955050602061166f888289016115ba565b9450506040611680888289016115ba565b935050606086013567ffffffffffffffff8111156116a1576116a061155e565b5b6116ad888289016115de565b92509250509295509295909350565b6116c581611563565b82525050565b60006020820190506116e060008301846116bc565b92915050565b60008060008060608587031215611700576116ff611559565b5b600061170e87828801611584565b945050602061171f87828801611584565b935050604085013567ffffffffffffffff8111156117405761173f61155e565b5b61174c878288016115de565b925092505092959194509250565b6000602082840312156117705761176f611559565b5b600061177e84828501611584565b91505092915050565b60008115159050919050565b61179c81611787565b82525050565b60006020820190506117b76000830184611793565b92915050565b600080604083850312156117d4576117d3611559565b5b60006117e285828601611584565b92505060206117f385828601611584565b9150509250929050565b600081519050919050565b600082825260208201905092915050565b60005b8381101561183757808201518184015260208101905061181c565b83811115611846576000848401525b50505050565b6000601f19601f8301169050919050565b6000611868826117fd565b6118728185611808565b9350611882818560208601611819565b61188b8161184c565b840191505092915050565b600060208201905081810360008301526118b0818461185d565b905092915050565b60008060008060008060008060c0898b0312156118d8576118d7611559565b5b60006118e68b828c01611584565b98505060206118f78b828c01611584565b97505060406119088b828c016115ba565b96505060606119198b828c016115ba565b955050608089013567ffffffffffffffff81111561193a5761193961155e565b5b6119468b828c016115de565b945094505060a089013567ffffffffffffffff8111156119695761196861155e565b5b6119758b828c016115de565b92509250509295985092959890939650565b60008083601f84011261199d5761199c6115cf565b5b8235905067ffffffffffffffff8111156119ba576119b96115d4565b5b6020830191508360208202830111156119d6576119d56115d9565b5b9250929050565b600080600080606085870312156119f7576119f6611559565b5b6000611a0587828801611584565b945050602085013567ffffffffffffffff811115611a2657611a2561155e565b5b611a3287828801611987565b93509350506040611a4587828801611584565b91505092959194509250565b7f4e487b7100000000000000000000000000000000000000000000000000000000600052604160045260246000fd5b611a898261184c565b810181811067ffffffffffffffff82111715611aa857611aa7611a51565b5b80604052505050565b6000611abb61154f565b9050611ac78282611a80565b919050565b600067ffffffffffffffff821115611ae757611ae6611a51565b5b602082029050602081019050919050565b6000611b0b611b0684611acc565b611ab1565b90508083825260208201905060208402830185811115611b2e57611b2d6115d9565b5b835b81811015611b575780611b438882611584565b845260208401935050602081019050611b30565b5050509392505050565b600082601f830112611b7657611b756115cf565b5b8135611b86848260208601611af8565b91505092915050565b60008060408385031215611ba657611ba5611559565b5b6000611bb485828601611584565b925050602083013567ffffffffffffffff811115611bd557611bd461155e565b5b611be185828601611b61565b9150509250929050565b611bf481611599565b82525050565b6000602082019050611c0f6000830184611beb565b92915050565b60008060008060008060808789031215611c3257611c31611559565b5b6000611c4089828a01611584565b965050602087013567ffffffffffffffff811115611c6157611c6061155e565b5b611c6d89828a016115de565b9550955050604087013567ffffffffffffffff811115611c9057611c8f61155e565b5b611c9c89828a016115de565b93509350506060611caf89828a016115ba565b9150509295509295509295565b7f5075627375623a20646576696365206973206e6f74207265676973746572656460008201527f2079657400000000000000000000000000000000000000000000000000000000602082015250565b6000611d18602483611808565b9150611d2382611cbc565b604082019050919050565b60006020820190508181036000830152611d4781611d0b565b9050919050565b7f5075627375623a20656e642074696d65206d756368206c61726765722074686160008201527f6e20626567696e2074696d650000000000000000000000000000000000000000602082015250565b6000611daa602c83611808565b9150611db582611d4e565b604082019050919050565b60006020820190508181036000830152611dd981611d9d565b9050919050565b7f4e487b7100000000000000000000000000000000000000000000000000000000600052602260045260246000fd5b60006002820490506001821680611e2757607f821691505b602082108103611e3a57611e39611de0565b5b50919050565b7f4e487b7100000000000000000000000000000000000000000000000000000000600052601160045260246000fd5b6000611e7a82611599565b9150611e8583611599565b925082821015611e9857611e97611e40565b5b828203905092915050565b7f4e487b7100000000000000000000000000000000000000000000000000000000600052601260045260246000fd5b6000611edd82611599565b9150611ee883611599565b925082611ef857611ef7611ea3565b5b828204905092915050565b6000611f0e82611599565b9150611f1983611599565b9250817fffffffffffffffffffffffffffffffffffffffffffffffffffffffffffffffff0483118215151615611f5257611f51611e40565b5b828202905092915050565b7f416d6f756e742069732073756666696369656e74000000000000000000000000600082015250565b6000611f93601483611808565b9150611f9e82611f5d565b602082019050919050565b60006020820190508181036000830152611fc281611f86565b9050919050565b600073ffffffffffffffffffffffffffffffffffffffff82169050919050565b6000611ff482611fc9565b9050919050565b60008160601b9050919050565b600061201382611ffb565b9050919050565b600061202582612008565b9050919050565b61203d61203882611fe9565b61201a565b82525050565b6000819050919050565b61205e61205982611599565b612043565b82525050565b6000612070828661202c565b601482019150612080828561202c565b601482019150612090828461204d565b602082019150819050949350505050565b82818337600083830152505050565b60006120bc8385611808565b93506120c98385846120a1565b6120d28361184c565b840190509392505050565b600060a0820190506120f260008301896116bc565b6120ff6020830188611beb565b61210c6040830187611beb565b6121196060830186611beb565b818103608083015261212c8184866120b0565b9050979650505050505050565b7f5075627375623a20596f7520617265206e6f7420746865206f776e6572000000600082015250565b600061216f601d83611808565b915061217a82612139565b602082019050919050565b6000602082019050818103600083015261219e81612162565b9050919050565b7f5075627375623a2044617461206964206973206e6f7420636f72726563740000600082015250565b60006121db601e83611808565b91506121e6826121a5565b602082019050919050565b6000602082019050818103600083015261220a816121ce565b9050919050565b7f5075625375623a20596f7520617265206e6f7420746865206f776e6572206f6660008201527f2074686973206465766963650000000000000000000000000000000000000000602082015250565b600061226d602c83611808565b915061227882612211565b604082019050919050565b6000602082019050818103600083015261229c81612260565b9050919050565b60006080820190506122b86000830189611beb565b6122c56020830188611beb565b81810360408301526122d88186886120b0565b905081810360608301526122ed8184866120b0565b9050979650505050505050565b600082825260208201905092915050565b600080fd5b600061231c83856122fa565b93507f07ffffffffffffffffffffffffffffffffffffffffffffffffffffffffffffff83111561234f5761234e61230b565b5b6020830292506123608385846120a1565b82840190509392505050565b60006040820190508181036000830152612387818587612310565b90506123966020830184611beb565b949350505050565b7f4e487b7100000000000000000000000000000000000000000000000000000000600052603260045260246000fd5b60006123d882611599565b91506123e383611599565b9250827fffffffffffffffffffffffffffffffffffffffffffffffffffffffffffffffff0382111561241857612417611e40565b5b828201905092915050565b7f5075625375623a2049642068617665206265656e207573656400000000000000600082015250565b6000612459601983611808565b915061246482612423565b602082019050919050565b600060208201905081810360008301526124888161244c565b9050919050565b600060608201905081810360008301526124aa8187896120b0565b905081810360208301526124bf8185876120b0565b90506124ce6040830184611beb565b969550505050505056fea26469706673582212203f9bb9665d2850476fb056921323592ac4643833c0d182f5181df23d05dc5bd264736f6c634300080d0033",
  "immutableReferences": {},
  "source": "// SPDX-License-Identifier: MIT\r\npragma solidity ^0.8.0;\r\n\r\ncontract PubSub {\r\n    uint256 private constant SECADAY = 86400;\r\n    mapping(bytes32 => Devices) userDevices; // deviceID to device\r\n    mapping(bytes32 => bool) public usedId; // deviceID to bool\r\n    mapping(bytes32 => mapping(bytes32 => SensorData)) devicesData; // from deviceID to dataID\r\n    mapping(bytes32 =>  mapping(bytes32 => string)) rek; // from deviceID to dataID to  rek\r\n    // mapping (address => mapping(address => uint256 [] )) transaction; //from DO to DU to arr of fee\r\n    mapping(address => mapping(address => mapping ( bytes32 => uint256))) transactionList; // from DO to DU to transactionID to amount\r\n    struct Devices {\r\n        address owner;\r\n        string name;\r\n        string decribe;\r\n        uint256 pricePerDay;\r\n    }\r\n\r\n    struct SensorData {\r\n        bool isUsed;\r\n        string uri;\r\n        uint256 from;\r\n        uint256 to;\r\n    }\r\n\r\n    event Register(\r\n        address indexed owner,\r\n        bytes32 indexed id,\r\n        string deviceName,\r\n        string _decribe,\r\n        uint256 price\r\n    );\r\n    event Subscribe(\r\n        address indexed from,\r\n        address indexed to,\r\n        bytes32 indexed deviceID,\r\n        bytes32 txID,\r\n        uint256 start,\r\n        uint256 end,\r\n        uint256 price,\r\n        string pk\r\n    );\r\n\r\n    event BuyPackage(\r\n        address indexed from,\r\n        address indexed to,\r\n        bytes32 indexed deviceID,\r\n        uint256 txID,\r\n        bytes32 [] dataID, \r\n        uint256 price,\r\n        string pk\r\n    );\r\n\r\n    event NewData(\r\n        bytes32 indexed deviceID,\r\n        bytes32 indexed dataID,\r\n        uint256 _from,\r\n        uint256 _to,\r\n        string _dataUri,\r\n        string _keyUri\r\n    );\r\n    event NewKey(bytes32 keyID, string uri);\r\n\r\n    event Confirm(address indexed from, address indexed to, bytes32[] dataID, uint256 amount, bytes32 indexed txId);\r\n\r\n    fallback() external payable {}\r\n\r\n    function register(\r\n        bytes32 deviceID,\r\n        string calldata deviceName,\r\n        string calldata _decribe,\r\n        uint256 pricePerDay\r\n    ) external {\r\n        require(!isUsed(deviceID), \"PubSub: Id have been used\");\r\n        userDevices[deviceID] = Devices(msg.sender,deviceName, _decribe, pricePerDay);\r\n        usedId[deviceID] = true;\r\n        emit Register(msg.sender, deviceID,deviceName, _decribe, pricePerDay);\r\n    }\r\n\r\n    function isUsed(bytes32 id) public view returns (bool used) {\r\n        used = usedId[id];\r\n    }\r\n\r\n    function publish(\r\n        bytes32 deviceID,\r\n        bytes32 dataID,\r\n        uint256 _from,\r\n        uint256 _to,\r\n        string calldata keyUri,\r\n        string calldata dataUri\r\n    ) external {\r\n        require(userDevices[deviceID].owner == msg.sender,\"PubSub: You are not the owner of this device\");\r\n        rek[deviceID][dataID] = keyUri;\r\n        devicesData[deviceID][dataID] = SensorData(true,dataUri, _from, _to);\r\n        emit NewData(deviceID, dataID, _from, _to, dataUri,keyUri);\r\n    }\r\n\r\n    function updateKey(\r\n        bytes32 deviceID,\r\n        bytes32 dataID,\r\n        string calldata keyUri\r\n    ) public {\r\n        require(userDevices[deviceID].owner == msg.sender,\"Pubsub: You are not the owner\");\r\n        require(devicesData[deviceID][dataID].isUsed == true,\"Pubsub: Data id is not correct\");\r\n        rek[deviceID][dataID] = keyUri;\r\n    }\r\n\r\n    function subscribe(\r\n        bytes32 deviceID,\r\n        uint256 _from,\r\n        uint256 _to,\r\n        string calldata _pubKey\r\n    ) external payable returns (bytes32)  {\r\n        require(userDevices[deviceID].owner != address(0x0),\"Pubsub: device is not registered yet\");\r\n        require(_from < _to,\"Pubsub: end time much larger than begin time\");\r\n        Devices memory device = userDevices[deviceID];\r\n        uint256 price = ((_from - _to) / SECADAY) * device.pricePerDay;\r\n        require(msg.value >= price, \"Amount is sufficient\");\r\n\r\n        bytes32 txId = keccak256(abi.encodePacked(msg.sender, device.owner, block.timestamp));\r\n        \r\n        payable(this).transfer(price);\r\n        emit Subscribe(\r\n            msg.sender,\r\n            device.owner,\r\n            deviceID,\r\n            txId,\r\n            _from,\r\n            _to,\r\n            price,\r\n            _pubKey\r\n        );\r\n        return txId;\r\n    }\r\n\r\n    function calPackagePrice (bytes32 deviceID, bytes32[] memory dataID) public view returns(uint256){\r\n        Devices memory device = userDevices[deviceID];\r\n        uint256 duration = 0;\r\n        for(uint256 i; i< dataID.length; i=i+1){\r\n            duration += devicesData[deviceID][dataID[i]].to - devicesData[deviceID][dataID[i]].from;\r\n        }\r\n        uint256 price  = duration / SECADAY * device.pricePerDay;\r\n        return price;\r\n    }\r\n\r\n    function confirm (bytes32 deviceID, bytes32[] calldata dataID, bytes32 txId) external{\r\n        require(userDevices[deviceID].owner != address(0x0),\"Pubsub: device is not registered yet\");\r\n        Devices memory device = userDevices[deviceID];\r\n        uint256 totalprice = calPackagePrice(deviceID,dataID);\r\n        transactionList[device.owner][msg.sender][txId] -= totalprice;\r\n        emit  Confirm( msg.sender, device.owner, dataID, totalprice, txId);\r\n    }\r\n\r\n    function getData(bytes32 dataID, bytes32 deviceID)\r\n        external\r\n        view\r\n        returns (string memory)\r\n    {\r\n        return devicesData[deviceID][dataID].uri;\r\n    }\r\n\r\n    function getRek( bytes32 deviceID, bytes32 dataID) external view returns (string memory) {\r\n        return rek[deviceID][dataID];\r\n    }\r\n}\r\n",
  "sourcePath": "D:\\File Bai Hoc\\Luan Van\\Implement-pub-sub-in-blockchain\\contracts\\PubSub.sol",
  "compiler": {
    "name": "solc",
    "version": "0.8.13+commit.abaa5c0e.Emscripten.clang"
  },
  "schemaVersion": "3.4.2",
  "updatedAt": "2022-04-29T09:21:40.450Z",
  "networkType": "ethereum",
  "devdoc": {
    "kind": "dev",
    "methods": {},
    "version": 1
  },
  "userdoc": {
    "kind": "user",
    "methods": {},
    "version": 1
  }
}