{
  "contractName": "PubSub",
  "abi": [
    {
      "anonymous": false,
      "inputs": [
        {
          "indexed": false,
          "internalType": "bytes32",
          "name": "keyID",
          "type": "bytes32"
        },
        {
          "indexed": false,
          "internalType": "string",
          "name": "uri",
          "type": "string"
        }
      ],
      "name": "NewKey",
      "type": "event"
    },
    {
      "anonymous": false,
      "inputs": [
        {
          "indexed": true,
          "internalType": "address",
          "name": "owner",
          "type": "address"
        },
        {
          "indexed": true,
          "internalType": "bytes32",
          "name": "id",
          "type": "bytes32"
        },
        {
          "indexed": false,
          "internalType": "string",
          "name": "_decribe",
          "type": "string"
        },
        {
          "indexed": false,
          "internalType": "uint256",
          "name": "price",
          "type": "uint256"
        }
      ],
      "name": "Register",
      "type": "event"
    },
    {
      "anonymous": false,
      "inputs": [
        {
          "indexed": true,
          "internalType": "address",
          "name": "from",
          "type": "address"
        },
        {
          "indexed": false,
          "internalType": "address",
          "name": "to",
          "type": "address"
        },
        {
          "indexed": false,
          "internalType": "bytes32",
          "name": "deviceID",
          "type": "bytes32"
        },
        {
          "indexed": false,
          "internalType": "uint256",
          "name": "start",
          "type": "uint256"
        },
        {
          "indexed": false,
          "internalType": "uint256",
          "name": "end",
          "type": "uint256"
        },
        {
          "indexed": false,
          "internalType": "uint256",
          "name": "price",
          "type": "uint256"
        },
        {
          "indexed": false,
          "internalType": "bytes32",
          "name": "pk",
          "type": "bytes32"
        }
      ],
      "name": "Subcribe",
      "type": "event"
    },
    {
      "anonymous": false,
      "inputs": [
        {
          "indexed": false,
          "internalType": "bytes32",
          "name": "deviceID",
          "type": "bytes32"
        },
        {
          "indexed": false,
          "internalType": "bytes32",
          "name": "dataID",
          "type": "bytes32"
        },
        {
          "indexed": false,
          "internalType": "bytes32",
          "name": "keyID",
          "type": "bytes32"
        },
        {
          "indexed": false,
          "internalType": "uint256",
          "name": "_from",
          "type": "uint256"
        },
        {
          "indexed": false,
          "internalType": "uint256",
          "name": "_to",
          "type": "uint256"
        },
        {
          "indexed": false,
          "internalType": "string",
          "name": "_uri",
          "type": "string"
        }
      ],
      "name": "newData",
      "type": "event"
    },
    {
      "stateMutability": "payable",
      "type": "fallback"
    },
    {
      "inputs": [
        {
          "internalType": "bytes32",
          "name": "",
          "type": "bytes32"
        }
      ],
      "name": "usedId",
      "outputs": [
        {
          "internalType": "bool",
          "name": "",
          "type": "bool"
        }
      ],
      "stateMutability": "view",
      "type": "function"
    },
    {
      "inputs": [
        {
          "internalType": "bytes32",
          "name": "deviceID",
          "type": "bytes32"
        },
        {
          "internalType": "string",
          "name": "_decribe",
          "type": "string"
        },
        {
          "internalType": "uint256",
          "name": "pricePerDay",
          "type": "uint256"
        }
      ],
      "name": "register",
      "outputs": [
        {
          "internalType": "uint256",
          "name": "",
          "type": "uint256"
        }
      ],
      "stateMutability": "nonpayable",
      "type": "function"
    },
    {
      "inputs": [
        {
          "internalType": "bytes32",
          "name": "id",
          "type": "bytes32"
        }
      ],
      "name": "isUsed",
      "outputs": [
        {
          "internalType": "bool",
          "name": "used",
          "type": "bool"
        }
      ],
      "stateMutability": "view",
      "type": "function"
    },
    {
      "inputs": [
        {
          "internalType": "bytes32",
          "name": "deviceID",
          "type": "bytes32"
        },
        {
          "internalType": "bytes32",
          "name": "dataID",
          "type": "bytes32"
        },
        {
          "internalType": "bytes32",
          "name": "keyID",
          "type": "bytes32"
        },
        {
          "internalType": "uint256",
          "name": "_from",
          "type": "uint256"
        },
        {
          "internalType": "uint256",
          "name": "_to",
          "type": "uint256"
        },
        {
          "internalType": "string",
          "name": "dataUri",
          "type": "string"
        }
      ],
      "name": "publish",
      "outputs": [],
      "stateMutability": "nonpayable",
      "type": "function"
    },
    {
      "inputs": [
        {
          "internalType": "bytes32",
          "name": "deviceID",
          "type": "bytes32"
        },
        {
          "internalType": "bytes32",
          "name": "dataID",
          "type": "bytes32"
        },
        {
          "internalType": "bytes32",
          "name": "keyID",
          "type": "bytes32"
        }
      ],
      "name": "updateKey",
      "outputs": [],
      "stateMutability": "nonpayable",
      "type": "function"
    },
    {
      "inputs": [
        {
          "internalType": "bytes32",
          "name": "deviceID",
          "type": "bytes32"
        },
        {
          "internalType": "uint256",
          "name": "_from",
          "type": "uint256"
        },
        {
          "internalType": "uint256",
          "name": "_to",
          "type": "uint256"
        },
        {
          "internalType": "bytes32",
          "name": "_pubKey",
          "type": "bytes32"
        }
      ],
      "name": "subcribe",
      "outputs": [],
      "stateMutability": "payable",
      "type": "function"
    },
    {
      "inputs": [
        {
          "internalType": "bytes32",
          "name": "dataID",
          "type": "bytes32"
        },
        {
          "internalType": "bytes32",
          "name": "deviceID",
          "type": "bytes32"
        }
      ],
      "name": "getData",
      "outputs": [
        {
          "internalType": "string",
          "name": "",
          "type": "string"
        }
      ],
      "stateMutability": "view",
      "type": "function"
    },
    {
      "inputs": [
        {
          "internalType": "bytes32",
          "name": "dataID",
          "type": "bytes32"
        }
      ],
      "name": "getRek",
      "outputs": [
        {
          "internalType": "string",
          "name": "",
          "type": "string"
        }
      ],
      "stateMutability": "view",
      "type": "function"
    }
  ],
  "bytecode": "0x608060405234801561001057600080fd5b50611117806100206000396000f3fe60806040526004361061007f5760003560e01c806380bf7c5b1161004e57806380bf7c5b14610162578063b9b5bec91461018b578063ef13ee70146101c8578063fe255a18146101e457610080565b80632e455f891461008257806338609dea146100bf5780633dfb5282146100fc5780637a06fff41461012557610080565b5b005b34801561008e57600080fd5b506100a960048036038101906100a49190610903565b610221565b6040516100b6919061094b565b60405180910390f35b3480156100cb57600080fd5b506100e660048036038101906100e19190610966565b610241565b6040516100f39190610a3f565b60405180910390f35b34801561010857600080fd5b50610123600480360381019061011e9190610afc565b61026e565b005b34801561013157600080fd5b5061014c60048036038101906101479190610903565b610389565b6040516101599190610a3f565b60405180910390f35b34801561016e57600080fd5b5061018960048036038101906101849190610bab565b610447565b005b34801561019757600080fd5b506101b260048036038101906101ad9190610bfe565b6104d1565b6040516101bf9190610c81565b60405180910390f35b6101e260048036038101906101dd9190610c9c565b61069a565b005b3480156101f057600080fd5b5061020b60048036038101906102069190610903565b6107f6565b604051610218919061094b565b60405180910390f35b60016020528060005260406000206000915054906101000a900460ff1681565b60606002600083815260200190815260200160002060008481526020019081526020016000205092915050565b846004600088815260200190815260200160002081905550604051806060016040528083838080601f016020809104026020016040519081016040528093929190818152602001838380828437600081840152601f19601f820116905080830192505050505050508152602001858152602001848152506002600089815260200190815260200160002060008881526020019081526020016000206000820151816000019080519060200190610325929190610820565b5060208201518160010155604082015181600201559050507fcf84e30f8ce6bf1e45672f1af19fb6bd0bf127f0ba36ed9f36f05a7410528af2878787878787876040516103789796959493929190610d4e565b60405180910390a150505050505050565b60606000600460008481526020019081526020016000205490506003600082815260200190815260200160002080546103c190610de7565b80601f01602080910402602001604051908101604052809291908181526020018280546103ed90610de7565b801561043a5780601f1061040f5761010080835404028352916020019161043a565b820191906000526020600020905b81548152906001019060200180831161041d57829003601f168201915b5050505050915050919050565b3373ffffffffffffffffffffffffffffffffffffffff1660008085815260200190815260200160002060000160009054906101000a900473ffffffffffffffffffffffffffffffffffffffff1673ffffffffffffffffffffffffffffffffffffffff16146104b457600080fd5b806004600084815260200190815260200160002081905550505050565b60006104dc856107f6565b1561051c576040517f08c379a000000000000000000000000000000000000000000000000000000000815260040161051390610e64565b60405180910390fd5b60405180606001604052803373ffffffffffffffffffffffffffffffffffffffff16815260200185858080601f016020809104026020016040519081016040528093929190818152602001838380828437600081840152601f19601f8201169050808301925050505050505081526020018381525060008087815260200190815260200160002060008201518160000160006101000a81548173ffffffffffffffffffffffffffffffffffffffff021916908373ffffffffffffffffffffffffffffffffffffffff1602179055506020820151816001019080519060200190610606929190610820565b5060408201518160020155905050600180600087815260200190815260200160002060006101000a81548160ff021916908315150217905550843373ffffffffffffffffffffffffffffffffffffffff167f9787c881b7180d464005e87c1fa5db8693cabe6f135f4ec78f636c1c0142dedd86868660405161068a93929190610e84565b60405180910390a3949350505050565b6000806000868152602001908152602001600020600201546201518084866106c29190610ee5565b6106cc9190610f48565b6106d69190610f79565b90508034101561071b576040517f08c379a00000000000000000000000000000000000000000000000000000000081526004016107129061101f565b60405180910390fd5b3073ffffffffffffffffffffffffffffffffffffffff166108fc829081150290604051600060405180830381858888f19350505050158015610761573d6000803e3d6000fd5b503373ffffffffffffffffffffffffffffffffffffffff167f8873b901cef6bf62da9e497e76958385e7c1631448089d14dbbd1c2ca5965d8b60008088815260200190815260200160002060000160009054906101000a900473ffffffffffffffffffffffffffffffffffffffff1687878786886040516107e796959493929190611080565b60405180910390a25050505050565b60006001600083815260200190815260200160002060009054906101000a900460ff169050919050565b82805461082c90610de7565b90600052602060002090601f01602090048101928261084e5760008555610895565b82601f1061086757805160ff1916838001178555610895565b82800160010185558215610895579182015b82811115610894578251825591602001919060010190610879565b5b5090506108a291906108a6565b5090565b5b808211156108bf5760008160009055506001016108a7565b5090565b600080fd5b600080fd5b6000819050919050565b6108e0816108cd565b81146108eb57600080fd5b50565b6000813590506108fd816108d7565b92915050565b600060208284031215610919576109186108c3565b5b6000610927848285016108ee565b91505092915050565b60008115159050919050565b61094581610930565b82525050565b6000602082019050610960600083018461093c565b92915050565b6000806040838503121561097d5761097c6108c3565b5b600061098b858286016108ee565b925050602061099c858286016108ee565b9150509250929050565b600081519050919050565b600082825260208201905092915050565b60005b838110156109e05780820151818401526020810190506109c5565b838111156109ef576000848401525b50505050565b6000601f19601f8301169050919050565b6000610a11826109a6565b610a1b81856109b1565b9350610a2b8185602086016109c2565b610a34816109f5565b840191505092915050565b60006020820190508181036000830152610a598184610a06565b905092915050565b6000819050919050565b610a7481610a61565b8114610a7f57600080fd5b50565b600081359050610a9181610a6b565b92915050565b600080fd5b600080fd5b600080fd5b60008083601f840112610abc57610abb610a97565b5b8235905067ffffffffffffffff811115610ad957610ad8610a9c565b5b602083019150836001820283011115610af557610af4610aa1565b5b9250929050565b600080600080600080600060c0888a031215610b1b57610b1a6108c3565b5b6000610b298a828b016108ee565b9750506020610b3a8a828b016108ee565b9650506040610b4b8a828b016108ee565b9550506060610b5c8a828b01610a82565b9450506080610b6d8a828b01610a82565b93505060a088013567ffffffffffffffff811115610b8e57610b8d6108c8565b5b610b9a8a828b01610aa6565b925092505092959891949750929550565b600080600060608486031215610bc457610bc36108c3565b5b6000610bd2868287016108ee565b9350506020610be3868287016108ee565b9250506040610bf4868287016108ee565b9150509250925092565b60008060008060608587031215610c1857610c176108c3565b5b6000610c26878288016108ee565b945050602085013567ffffffffffffffff811115610c4757610c466108c8565b5b610c5387828801610aa6565b93509350506040610c6687828801610a82565b91505092959194509250565b610c7b81610a61565b82525050565b6000602082019050610c966000830184610c72565b92915050565b60008060008060808587031215610cb657610cb56108c3565b5b6000610cc4878288016108ee565b9450506020610cd587828801610a82565b9350506040610ce687828801610a82565b9250506060610cf7878288016108ee565b91505092959194509250565b610d0c816108cd565b82525050565b82818337600083830152505050565b6000610d2d83856109b1565b9350610d3a838584610d12565b610d43836109f5565b840190509392505050565b600060c082019050610d63600083018a610d03565b610d706020830189610d03565b610d7d6040830188610d03565b610d8a6060830187610c72565b610d976080830186610c72565b81810360a0830152610daa818486610d21565b905098975050505050505050565b7f4e487b7100000000000000000000000000000000000000000000000000000000600052602260045260246000fd5b60006002820490506001821680610dff57607f821691505b602082108103610e1257610e11610db8565b5b50919050565b7f5075625375623a2049642068617665206265656e207573656400000000000000600082015250565b6000610e4e6019836109b1565b9150610e5982610e18565b602082019050919050565b60006020820190508181036000830152610e7d81610e41565b9050919050565b60006040820190508181036000830152610e9f818587610d21565b9050610eae6020830184610c72565b949350505050565b7f4e487b7100000000000000000000000000000000000000000000000000000000600052601160045260246000fd5b6000610ef082610a61565b9150610efb83610a61565b925082821015610f0e57610f0d610eb6565b5b828203905092915050565b7f4e487b7100000000000000000000000000000000000000000000000000000000600052601260045260246000fd5b6000610f5382610a61565b9150610f5e83610a61565b925082610f6e57610f6d610f19565b5b828204905092915050565b6000610f8482610a61565b9150610f8f83610a61565b9250817fffffffffffffffffffffffffffffffffffffffffffffffffffffffffffffffff0483118215151615610fc857610fc7610eb6565b5b828202905092915050565b7f416d6f756e742069732073756666696369656e74000000000000000000000000600082015250565b60006110096014836109b1565b915061101482610fd3565b602082019050919050565b6000602082019050818103600083015261103881610ffc565b9050919050565b600073ffffffffffffffffffffffffffffffffffffffff82169050919050565b600061106a8261103f565b9050919050565b61107a8161105f565b82525050565b600060c0820190506110956000830189611071565b6110a26020830188610d03565b6110af6040830187610c72565b6110bc6060830186610c72565b6110c96080830185610c72565b6110d660a0830184610d03565b97965050505050505056fea26469706673582212206bfcb0ed7b23809f82c1e70347a1bb48d91e30c21fb8b1feb32ff3f660aa818964736f6c634300080d0033",
  "immutableReferences": {},
  "source": "// SPDX-License-Identifier: MIT\r\npragma solidity ^0.8.0;\r\n\r\ncontract PubSub {\r\n    uint256 private constant SECADAY = 86400;\r\n    mapping(bytes32 => Devices) userDevices; // deviceID to device\r\n    mapping(bytes32 => bool) public usedId; // deviceID to bool\r\n    mapping(bytes32 => mapping(bytes32 => SensorData)) devicesData; // from deviceID to dataID\r\n    mapping(bytes32 => string) rek; // from dataID to DU address to rek\r\n    mapping(bytes32 => bytes32) keyData;\r\n    struct Devices {\r\n        address owner;\r\n        string decribe;\r\n        uint256 pricePerDay;\r\n    }\r\n\r\n    struct SensorData {\r\n        string uri;\r\n        uint256 from;\r\n        uint256 to;\r\n    }\r\n\r\n    event Register(\r\n        address indexed owner,\r\n        bytes32 indexed id,\r\n        string _decribe,\r\n        uint256 price\r\n    );\r\n    event Subcribe(\r\n        address indexed from,\r\n        address to,\r\n        bytes32 deviceID,\r\n        uint256 start,\r\n        uint256 end,\r\n        uint256 price,\r\n        bytes32 pk\r\n    );\r\n    event newData(\r\n        bytes32 deviceID,\r\n        bytes32 dataID,\r\n        bytes32 keyID,\r\n        uint256 _from,\r\n        uint256 _to,\r\n        string _uri\r\n    );\r\n    event NewKey(bytes32 keyID, string uri);\r\n\r\n    fallback() external payable {}\r\n\r\n    function register(\r\n        bytes32 deviceID,\r\n        string calldata _decribe,\r\n        uint256 pricePerDay\r\n    ) external returns (uint256) {\r\n        require(!isUsed(deviceID), \"PubSub: Id have been used\");\r\n        userDevices[deviceID] = Devices(msg.sender, _decribe, pricePerDay);\r\n        usedId[deviceID] = true;\r\n        emit Register(msg.sender, deviceID, _decribe, pricePerDay);\r\n    }\r\n\r\n    function isUsed(bytes32 id) public view returns (bool used) {\r\n        used = usedId[id];\r\n    }\r\n\r\n    function publish(\r\n        bytes32 deviceID,\r\n        bytes32 dataID,\r\n        bytes32 keyID,\r\n        uint256 _from,\r\n        uint256 _to,\r\n        string calldata dataUri\r\n    ) external {\r\n        keyData[dataID] = keyID;\r\n        devicesData[deviceID][dataID] = SensorData(dataUri, _from, _to);\r\n        emit newData(deviceID, dataID, keyID, _from, _to, dataUri);\r\n    }\r\n\r\n    // function createKey (bytes32 keyID , string calldata _uri ) external {\r\n    //     require(bytes(rek[keyID]).length == 0, \"This key have been used\" );\r\n    //     rek[keyID]= _uri;\r\n    //     emit NewKey(keyID, _uri);\r\n    // }\r\n\r\n    function updateKey(\r\n        bytes32 deviceID,\r\n        bytes32 dataID,\r\n        bytes32 keyID\r\n    ) public {\r\n        require(userDevices[deviceID].owner == msg.sender);\r\n        keyData[dataID] = keyID;\r\n    }\r\n\r\n    function subcribe(\r\n        bytes32 deviceID,\r\n        uint256 _from,\r\n        uint256 _to,\r\n        bytes32 _pubKey\r\n    ) external payable {\r\n        uint256 price = ((_from - _to) / SECADAY) *\r\n            userDevices[deviceID].pricePerDay;\r\n        require(msg.value >= price, \"Amount is sufficient\");\r\n        payable(this).transfer(price);\r\n        emit Subcribe(\r\n            msg.sender,\r\n            userDevices[deviceID].owner,\r\n            deviceID,\r\n            _from,\r\n            _to,\r\n            price,\r\n            _pubKey\r\n        );\r\n    }\r\n\r\n    function getData(bytes32 dataID, bytes32 deviceID)\r\n        external\r\n        view\r\n        returns (string memory)\r\n    {\r\n        devicesData[deviceID][dataID].uri;\r\n    }\r\n\r\n    function getRek(bytes32 dataID) external view returns (string memory) {\r\n        bytes32 keyID = keyData[dataID];\r\n        return rek[keyID];\r\n    }\r\n}\r\n",
  "sourcePath": "E:\\GitHub\\Implement-pub-sub-in-blockchain\\contracts\\PubSub.sol",
  "compiler": {
    "name": "solc",
    "version": "0.8.13+commit.abaa5c0e.Emscripten.clang"
  },
  "schemaVersion": "3.4.7",
  "updatedAt": "2022-04-14T14:01:41.228Z",
  "devdoc": {
    "kind": "dev",
    "methods": {},
    "version": 1
  },
  "userdoc": {
    "kind": "user",
    "methods": {},
    "version": 1
  }
}