{
  "contractName": "PubSub",
  "abi": [
    {
      "anonymous": false,
      "inputs": [
        {
          "indexed": true,
          "internalType": "address",
          "name": "owner",
          "type": "address"
        },
        {
          "indexed": true,
          "internalType": "bytes32",
          "name": "id",
          "type": "bytes32"
        },
        {
          "indexed": false,
          "internalType": "string",
          "name": "_decribe",
          "type": "string"
        },
        {
          "indexed": false,
          "internalType": "uint256",
          "name": "price",
          "type": "uint256"
        }
      ],
      "name": "Register",
      "type": "event"
    },
    {
      "anonymous": false,
      "inputs": [
        {
          "indexed": true,
          "internalType": "address",
          "name": "from",
          "type": "address"
        },
        {
          "indexed": false,
          "internalType": "address",
          "name": "to",
          "type": "address"
        },
        {
          "indexed": false,
          "internalType": "bytes32",
          "name": "deviceID",
          "type": "bytes32"
        },
        {
          "indexed": false,
          "internalType": "uint256",
          "name": "start",
          "type": "uint256"
        },
        {
          "indexed": false,
          "internalType": "uint256",
          "name": "end",
          "type": "uint256"
        },
        {
          "indexed": false,
          "internalType": "uint256",
          "name": "price",
          "type": "uint256"
        },
        {
          "indexed": false,
          "internalType": "bytes32",
          "name": "pk",
          "type": "bytes32"
        }
      ],
      "name": "Subcribe",
      "type": "event"
    },
    {
      "anonymous": false,
      "inputs": [
        {
          "indexed": false,
          "internalType": "bytes32",
          "name": "deviceID",
          "type": "bytes32"
        },
        {
          "indexed": false,
          "internalType": "bytes32",
          "name": "dataID",
          "type": "bytes32"
        },
        {
          "indexed": false,
          "internalType": "bytes32",
          "name": "keyID",
          "type": "bytes32"
        },
        {
          "indexed": false,
          "internalType": "uint256",
          "name": "_from",
          "type": "uint256"
        },
        {
          "indexed": false,
          "internalType": "uint256",
          "name": "_to",
          "type": "uint256"
        },
        {
          "indexed": false,
          "internalType": "string",
          "name": "_uri",
          "type": "string"
        }
      ],
      "name": "newData",
      "type": "event"
    },
    {
      "stateMutability": "payable",
      "type": "fallback",
      "payable": true
    },
    {
      "inputs": [
        {
          "internalType": "bytes32",
          "name": "deviceID",
          "type": "bytes32"
        },
        {
          "internalType": "string",
          "name": "_decribe",
          "type": "string"
        },
        {
          "internalType": "uint256",
          "name": "pricePerDay",
          "type": "uint256"
        }
      ],
      "name": "register",
      "outputs": [
        {
          "internalType": "uint256",
          "name": "",
          "type": "uint256"
        }
      ],
      "stateMutability": "nonpayable",
      "type": "function"
    },
    {
      "inputs": [
        {
          "internalType": "bytes32",
          "name": "deviceID",
          "type": "bytes32"
        },
        {
          "internalType": "bytes32",
          "name": "dataID",
          "type": "bytes32"
        },
        {
          "internalType": "bytes32",
          "name": "keyID",
          "type": "bytes32"
        },
        {
          "internalType": "uint256",
          "name": "_from",
          "type": "uint256"
        },
        {
          "internalType": "uint256",
          "name": "_to",
          "type": "uint256"
        },
        {
          "internalType": "string",
          "name": "_uri",
          "type": "string"
        }
      ],
      "name": "publish",
      "outputs": [],
      "stateMutability": "nonpayable",
      "type": "function"
    },
    {
      "inputs": [
        {
          "internalType": "bytes32",
          "name": "keyID",
          "type": "bytes32"
        },
        {
          "internalType": "address[]",
          "name": "listSub",
          "type": "address[]"
        },
        {
          "internalType": "bytes32[]",
          "name": "listRek",
          "type": "bytes32[]"
        }
      ],
      "name": "createKey",
      "outputs": [],
      "stateMutability": "nonpayable",
      "type": "function"
    },
    {
      "inputs": [
        {
          "internalType": "bytes32",
          "name": "deviceID",
          "type": "bytes32"
        },
        {
          "internalType": "uint256",
          "name": "_from",
          "type": "uint256"
        },
        {
          "internalType": "uint256",
          "name": "_to",
          "type": "uint256"
        },
        {
          "internalType": "bytes32",
          "name": "_pubKey",
          "type": "bytes32"
        }
      ],
      "name": "subcribe",
      "outputs": [],
      "stateMutability": "payable",
      "type": "function",
      "payable": true
    },
    {
      "inputs": [
        {
          "internalType": "bytes32",
          "name": "dataID",
          "type": "bytes32"
        },
        {
          "internalType": "bytes32",
          "name": "deviceID",
          "type": "bytes32"
        }
      ],
      "name": "getData",
      "outputs": [
        {
          "internalType": "string",
          "name": "",
          "type": "string"
        }
      ],
      "stateMutability": "view",
      "type": "function",
      "constant": true
    },
    {
      "inputs": [
        {
          "internalType": "bytes32",
          "name": "dataID",
          "type": "bytes32"
        }
      ],
      "name": "getRek",
      "outputs": [
        {
          "internalType": "bytes32",
          "name": "",
          "type": "bytes32"
        }
      ],
      "stateMutability": "view",
      "type": "function",
      "constant": true
    }
  ],
  "bytecode": "0x608060405234801561001057600080fd5b50611136806100206000396000f3fe6080604052600436106100595760003560e01c8063254fc41f1461005c57806338609dea146100855780633dfb5282146100c25780637a06fff4146100eb578063b9b5bec914610128578063ef13ee70146101655761005a565b5b005b34801561006857600080fd5b50610083600480360381019061007e9190610896565b610181565b005b34801561009157600080fd5b506100ac60048036038101906100a7919061092b565b610240565b6040516100b99190610a04565b60405180910390f35b3480156100ce57600080fd5b506100e960048036038101906100e49190610ab2565b61026d565b005b3480156100f757600080fd5b50610112600480360381019061010d9190610b61565b610345565b60405161011f9190610b9d565b60405180910390f35b34801561013457600080fd5b5061014f600480360381019061014a9190610bb8565b6103b5565b60405161015c9190610c3b565b60405180910390f35b61017f600480360381019061017a9190610c56565b61059c565b005b60005b84849050811015610238578282828181106101a2576101a1610cbd565b5b905060200201356003600088815260200190815260200160002060008787858181106101d1576101d0610cbd565b5b90506020020160208101906101e69190610d4a565b73ffffffffffffffffffffffffffffffffffffffff1673ffffffffffffffffffffffffffffffffffffffff168152602001908152602001600020819055506001816102319190610da6565b9050610184565b505050505050565b60606002600083815260200190815260200160002060008481526020019081526020016000205092915050565b846004600088815260200190815260200160002081905550604051806060016040528083838080601f016020809104026020016040519081016040528093929190818152602001838380828437600081840152601f19601f8201169050808301925050505050505081526020018581526020018481525060026000898152602001908152602001600020600088815260200190815260200160002060008201518160000190805190602001906103249291906106f8565b50602082015181600101556040820151816002015590505050505050505050565b600080600460008481526020019081526020016000205490506003600082815260200190815260200160002060003373ffffffffffffffffffffffffffffffffffffffff1673ffffffffffffffffffffffffffffffffffffffff1681526020019081526020016000205050919050565b6000600115156001600087815260200190815260200160002060009054906101000a900460ff1615150361041e576040517f08c379a000000000000000000000000000000000000000000000000000000000815260040161041590610e48565b60405180910390fd5b60405180606001604052803373ffffffffffffffffffffffffffffffffffffffff16815260200185858080601f016020809104026020016040519081016040528093929190818152602001838380828437600081840152601f19601f8201169050808301925050505050505081526020018381525060008087815260200190815260200160002060008201518160000160006101000a81548173ffffffffffffffffffffffffffffffffffffffff021916908373ffffffffffffffffffffffffffffffffffffffff16021790555060208201518160010190805190602001906105089291906106f8565b5060408201518160020155905050600180600087815260200190815260200160002060006101000a81548160ff021916908315150217905550843373ffffffffffffffffffffffffffffffffffffffff167f9787c881b7180d464005e87c1fa5db8693cabe6f135f4ec78f636c1c0142dedd86868660405161058c93929190610ea4565b60405180910390a3949350505050565b6000806000868152602001908152602001600020600201546201518084866105c49190610ed6565b6105ce9190610f39565b6105d89190610f6a565b90508034101561061d576040517f08c379a000000000000000000000000000000000000000000000000000000000815260040161061490611010565b60405180910390fd5b3073ffffffffffffffffffffffffffffffffffffffff166108fc829081150290604051600060405180830381858888f19350505050158015610663573d6000803e3d6000fd5b503373ffffffffffffffffffffffffffffffffffffffff167f8873b901cef6bf62da9e497e76958385e7c1631448089d14dbbd1c2ca5965d8b60008088815260200190815260200160002060000160009054906101000a900473ffffffffffffffffffffffffffffffffffffffff1687878786886040516106e99695949392919061103f565b60405180910390a25050505050565b828054610704906110cf565b90600052602060002090601f016020900481019282610726576000855561076d565b82601f1061073f57805160ff191683800117855561076d565b8280016001018555821561076d579182015b8281111561076c578251825591602001919060010190610751565b5b50905061077a919061077e565b5090565b5b8082111561079757600081600090555060010161077f565b5090565b600080fd5b600080fd5b6000819050919050565b6107b8816107a5565b81146107c357600080fd5b50565b6000813590506107d5816107af565b92915050565b600080fd5b600080fd5b600080fd5b60008083601f840112610800576107ff6107db565b5b8235905067ffffffffffffffff81111561081d5761081c6107e0565b5b602083019150836020820283011115610839576108386107e5565b5b9250929050565b60008083601f840112610856576108556107db565b5b8235905067ffffffffffffffff811115610873576108726107e0565b5b60208301915083602082028301111561088f5761088e6107e5565b5b9250929050565b6000806000806000606086880312156108b2576108b161079b565b5b60006108c0888289016107c6565b955050602086013567ffffffffffffffff8111156108e1576108e06107a0565b5b6108ed888289016107ea565b9450945050604086013567ffffffffffffffff8111156109105761090f6107a0565b5b61091c88828901610840565b92509250509295509295909350565b600080604083850312156109425761094161079b565b5b6000610950858286016107c6565b9250506020610961858286016107c6565b9150509250929050565b600081519050919050565b600082825260208201905092915050565b60005b838110156109a557808201518184015260208101905061098a565b838111156109b4576000848401525b50505050565b6000601f19601f8301169050919050565b60006109d68261096b565b6109e08185610976565b93506109f0818560208601610987565b6109f9816109ba565b840191505092915050565b60006020820190508181036000830152610a1e81846109cb565b905092915050565b6000819050919050565b610a3981610a26565b8114610a4457600080fd5b50565b600081359050610a5681610a30565b92915050565b60008083601f840112610a7257610a716107db565b5b8235905067ffffffffffffffff811115610a8f57610a8e6107e0565b5b602083019150836001820283011115610aab57610aaa6107e5565b5b9250929050565b600080600080600080600060c0888a031215610ad157610ad061079b565b5b6000610adf8a828b016107c6565b9750506020610af08a828b016107c6565b9650506040610b018a828b016107c6565b9550506060610b128a828b01610a47565b9450506080610b238a828b01610a47565b93505060a088013567ffffffffffffffff811115610b4457610b436107a0565b5b610b508a828b01610a5c565b925092505092959891949750929550565b600060208284031215610b7757610b7661079b565b5b6000610b85848285016107c6565b91505092915050565b610b97816107a5565b82525050565b6000602082019050610bb26000830184610b8e565b92915050565b60008060008060608587031215610bd257610bd161079b565b5b6000610be0878288016107c6565b945050602085013567ffffffffffffffff811115610c0157610c006107a0565b5b610c0d87828801610a5c565b93509350506040610c2087828801610a47565b91505092959194509250565b610c3581610a26565b82525050565b6000602082019050610c506000830184610c2c565b92915050565b60008060008060808587031215610c7057610c6f61079b565b5b6000610c7e878288016107c6565b9450506020610c8f87828801610a47565b9350506040610ca087828801610a47565b9250506060610cb1878288016107c6565b91505092959194509250565b7f4e487b7100000000000000000000000000000000000000000000000000000000600052603260045260246000fd5b600073ffffffffffffffffffffffffffffffffffffffff82169050919050565b6000610d1782610cec565b9050919050565b610d2781610d0c565b8114610d3257600080fd5b50565b600081359050610d4481610d1e565b92915050565b600060208284031215610d6057610d5f61079b565b5b6000610d6e84828501610d35565b91505092915050565b7f4e487b7100000000000000000000000000000000000000000000000000000000600052601160045260246000fd5b6000610db182610a26565b9150610dbc83610a26565b9250827fffffffffffffffffffffffffffffffffffffffffffffffffffffffffffffffff03821115610df157610df0610d77565b5b828201905092915050565b7f5075627375623a20494420616c72656164792074616b656e0000000000000000600082015250565b6000610e32601883610976565b9150610e3d82610dfc565b602082019050919050565b60006020820190508181036000830152610e6181610e25565b9050919050565b82818337600083830152505050565b6000610e838385610976565b9350610e90838584610e68565b610e99836109ba565b840190509392505050565b60006040820190508181036000830152610ebf818587610e77565b9050610ece6020830184610c2c565b949350505050565b6000610ee182610a26565b9150610eec83610a26565b925082821015610eff57610efe610d77565b5b828203905092915050565b7f4e487b7100000000000000000000000000000000000000000000000000000000600052601260045260246000fd5b6000610f4482610a26565b9150610f4f83610a26565b925082610f5f57610f5e610f0a565b5b828204905092915050565b6000610f7582610a26565b9150610f8083610a26565b9250817fffffffffffffffffffffffffffffffffffffffffffffffffffffffffffffffff0483118215151615610fb957610fb8610d77565b5b828202905092915050565b7f416d6f756e742069732073756666696369656e74000000000000000000000000600082015250565b6000610ffa601483610976565b915061100582610fc4565b602082019050919050565b6000602082019050818103600083015261102981610fed565b9050919050565b61103981610d0c565b82525050565b600060c0820190506110546000830189611030565b6110616020830188610b8e565b61106e6040830187610c2c565b61107b6060830186610c2c565b6110886080830185610c2c565b61109560a0830184610b8e565b979650505050505050565b7f4e487b7100000000000000000000000000000000000000000000000000000000600052602260045260246000fd5b600060028204905060018216806110e757607f821691505b6020821081036110fa576110f96110a0565b5b5091905056fea26469706673582212203e8d396772324a77191728af6f829d8ddf53c6a028bb54b4bb541ffa8536b61364736f6c634300080d0033",
  "immutableReferences": {},
  "source": "// SPDX-License-Identifier: MIT\r\npragma solidity ^0.8.0;\r\n\r\ncontract PubSub {\r\n    uint256 constant private SECADAY = 86400;\r\n    mapping (bytes32 => Devices) userDevices; // deviceID to device\r\n    mapping (bytes32 => bool) usedId; // deviceID to bool\r\n    mapping (bytes32 => mapping ( bytes32 => SensorData) ) devicesData; // from deviceID to dataID \r\n    mapping (bytes32 => mapping  (address => bytes32)) rek; // from dataID to DU address to rek \r\n    mapping (bytes32 =>  bytes32) keyData;\r\n    struct Devices {\r\n        address owner;\r\n        string decribe;\r\n        uint256 pricePerDay;\r\n    }\r\n\r\n    struct SensorData{\r\n      string uri;\r\n      uint256 from;\r\n      uint256 to;\r\n    }\r\n\r\n    event Register ( address indexed owner, bytes32 indexed id, string _decribe, uint256 price);\r\n    event Subcribe (address indexed from, address to, bytes32 deviceID,uint256 start, uint256 end, uint256 price, bytes32 pk);\r\n    event newData (bytes32 deviceID , bytes32 dataID , bytes32 keyID,uint256 _from, uint256 _to, string  _uri);\r\n\r\n    fallback() external payable {}\r\n\r\n    function register (bytes32 deviceID, string calldata  _decribe, uint256 pricePerDay) external returns(uint256) {\r\n        require(usedId[deviceID] != true , \"Pubsub: ID already taken\");\r\n        userDevices[deviceID] = Devices(msg.sender, _decribe, pricePerDay) ;\r\n        usedId[deviceID] = true;\r\n        emit Register(msg.sender, deviceID, _decribe, pricePerDay);\r\n    }\r\n\r\n    function publish (bytes32 deviceID , bytes32 dataID , bytes32 keyID,uint256 _from, uint256 _to, string calldata _uri ) external {\r\n        keyData[dataID] = keyID;\r\n        devicesData[deviceID][dataID]= SensorData(_uri,_from,_to);\r\n    }\r\n\r\n    function createKey (bytes32 keyID , address [] calldata listSub, bytes32 [] calldata listRek ) external {\r\n        for (uint256 count =0; count < listSub.length; count =count +1 ){\r\n            rek[keyID][listSub[count]] = listRek[count];\r\n        } \r\n    }\r\n\r\n    function subcribe (bytes32 deviceID ,uint256 _from, uint256 _to, bytes32 _pubKey) external payable {\r\n        uint256 price =  (_from -_to)/SECADAY*userDevices[deviceID].pricePerDay;\r\n        require (msg.value >= price, \"Amount is sufficient\");\r\n        payable(this).transfer(price);\r\n        emit Subcribe ( msg.sender,  userDevices[deviceID].owner,  deviceID, _from,  _to,  price, _pubKey);\r\n    }\r\n\r\n    function getData (bytes32 dataID, bytes32 deviceID) external view returns (string memory) {\r\n        devicesData[deviceID][dataID].uri;\r\n    }\r\n\r\n    function getRek (bytes32 dataID) external view returns(bytes32) {\r\n        bytes32 keyID = keyData[dataID] ;\r\n        rek[keyID][msg.sender];\r\n    }\r\n}",
  "sourcePath": "D:\\File Bai Hoc\\Luan Van\\Implement-pub-sub-in-blockchain\\contracts\\PubSub.sol",
  "compiler": {
    "name": "solc",
    "version": "0.8.13+commit.abaa5c0e.Emscripten.clang"
  },
  "schemaVersion": "3.4.2",
  "updatedAt": "2022-03-21T02:08:43.208Z",
  "networkType": "ethereum",
  "devdoc": {
    "kind": "dev",
    "methods": {},
    "version": 1
  },
  "userdoc": {
    "kind": "user",
    "methods": {},
    "version": 1
  }
}